S01B000053746174654D616368696E65436F6E74726F6C2E7372656372
S11300000C94B5000C9472090C9485090C94D200DC
S11300100C94D2000C94D2000C94D2000C94D20014
S11300200C94D2000C94D2000C94D2000C94C0080E
S11300300C94D2000C94D2000C94D2000C94D200F4
S11300400C94D2000C94D2000C9493080C94D2001B
S11300500C94D2000C94D2000C94D2000C94D200D4
S11300600C94D2000C94D2006E616E00696E66002E
S113007000407A10F35A00A0724E18090010A5D45B
S1130080E80000E87648170000E40B54020000CAB8
S11300909A3B000000E1F5050000809698000000FE
S11300A040420F000000A08601000000102700005D
S11300B00000E803000000006400000000000A00E3
S11300C0000000000100000000002C76D888DC67E6
S11300D04F0823DFC1DFAE59E1B1B796E5E3E4533E
S11300E0C63AE651997696E8E6C28426EB898C9B5B
S11300F062ED407C6FFCEFBC9C9F40F2BAA56FA5FB
S1130100F490055A2AF75C936B6CF9676DC11BFC7C
S1130110E0E40D47FEF520E6B500D0ED902E030097
S1130120943577050080841E080000204E0A0000E4
S113013000C80C333333330F986E12831141EF8DA3
S11301402114893BE65516CFFEE6DB18D1844B38E3
S11301501BF77C1D901DA4BBE424203284725E2214
S11301608100C9F124ECA1E53D2711241FBECFEF86
S1130170D8E0DEBFCDBF15E0A0E0B1E0E6E2F7E2F3
S113018002C005900D92AA35B107D9F726E0AAE579
S1130190B5E001C01D92A436B207E1F70E949409AC
S11301A00C9491130C9400003D98ECE7F0E08081EE
S11301B085608083EEE7F0E0808180628083EAE7F7
S11301C0F0E08081876980830895EAE7F0E0808128
S11301D080648083808184FFFDCF209178003091FA
S11301E07900822F932F0895EF92FF920F931F931C
S11301F0CF93DF932A9885E50E9473082A9A81E0B9
S11302008093580610925E0680915D06811104C0A9
S113021080915A068823C1F31092580610925A0608
S113022080915D06882309F46FC08BE091E00E9401
S1130230A20B2A9885EF0E9473082A9A8FE891E00E
S11302400197F1F700C000008EB5863809F053C05D
S113025087E0E8E1F1E0A1E0B6E001900D928A9533
S1130260E1F707E010E00F2EFFE1EF2EF1E0FF2EA3
S1130270F02DC1ECD5E02A9885EF0E9473082A9AE4
S11302808FE891E00197F1F700C000008EB51F924E
S11302908F93FF92EF92DF93CF930E941113BE01CD
S11302A081E096E00E94B212015011090F900F9064
S11302B00F900F900F900F90F1F6E1E0F6E00190AF
S11302C00020E9F731978AE090E09183808381E010
S11302D096E00E94A20B48E050E067E076E081E4FB
S11302E096E00E94CB1281E496E00E94A20B81E08A
S11302F080935B0606C082E291E00E94A20B1092FA
S11303005B0610925D0608C083E391E00E94A20B95
S113031010925D0610925B06DF91CF911F910F91B1
S1130320FF90EF900895DF92EF92FF920F931F9347
S1130330CF93DF931F92CDB7DEB7D82E1F928F9342
S113034029E431E03F932F93EE24E394F12CEC0E57
S1130350FD1EFF92EF920E9411132CE431E03F93B3
S11303602F9301EC15E01F930F930E941113F801D2
S113037001900020E9F7319740E350E361E370E036
S11303804083518362837383B701C8010E94B21210
S11303900FB6F894DEBF0FBECDBF95E4D91609F4AD
S11303A03FC09D1520F083E4D8123EC01AC09CE4DF
S11303B0D91651F086E5D81237C061E476E081ECB5
S11303C095E00E94B21230C061E476E081EC95E0E1
S11303D00E94B2126CEB75E081EC95E00E94B212BF
S11303E023C060EA75E081EC95E00E94B21261E4FA
S11303F076E081EC95E00E94B21262EB75E081EC4C
S113040095E00E94B2126FEA75E081EC95E00E94DB
S1130410B21269EA75E081EC95E00E94B21204C060
S11304208FE491E00E94A20BE1ECF5E00190002042
S1130430E9F731978AE290E09183808383E691E043
S11304400E94A20B81EC95E00E94A20B0F90DF9119
S1130450CF911F910F91FF90EF90DF90089586E563
S11304600E9493011092560681E080935806809171
S11304705606811104C080915A068823C1F3109254
S1130480580610925A06809156068823C1F180E7D7
S113049091E00E94A20B8CE595E00E94A20B809152
S11304A0610590916205A0916305B0916405809304
S11304B0B7059093B805A093B905B093BA05109207
S11304C0BB0587E891E00E94A20B87EB95E00E94B0
S11304D0A20B80E4ECE5F5E0DF011D928A95E9F7D3
S11304E044E050E069EA71E087EB95E00E94BD12B8
S11304F0282F392F81E0232B39F080E008958EEAEC
S113050091E00E94A20B80E00895CF93DF93C0E0B6
S1130510D0E081E00E942108882379F0833441F0FF
S1130520FE01E454FA4F80830E94F905219605C028
S113053081E08093550680E073C0C430D1054CF34C
S11305408FEC91E00E94A20B8CEB95E00E94A20B31
S113055080E4ECE5F5E0DF011D928A95E9F78CE48F
S11305600E9493011092560681E080935806809170
S11305705606811104C080915A068823C1F3109253
S1130580580610925A0680915606882309F443C0EF
S11305908091710590917205A0917305B0917405D5
S11305A08093B7059093B805A093B905B093BA05A5
S11305B01092BB0588E0E1E6F5E0A0EAB5E0019021
S11305C00D928A95E1F71092A9058FED91E00E94B2
S11305D0A20B80EA95E00E94A20B8DEE91E00E94AE
S11305E0A20B87EB95E00E94A20B80E4ECE5F5E01A
S11305F0DF011D928A95E9F744E050E069EA71E071
S113060087EB95E00E94BD12282F392F81E0232B20
S113061039F080E005C085E092E00E94A20B80E002
S1130620DF91CF91089583E40E94930110925606BE
S113063081E08093580680915606811104C0809110
S11306405A068823C1F31092580610925A068091D4
S113065056068823C1F18EE292E00E94A20B8CE53B
S113066095E00E94A20B8091610590916205A09192
S11306706305B09164058093B7059093B805A09382
S1130680B905B093BA051092BB058BE592E00E94C0
S1130690A20B87EB95E00E94A20B80E4ECE5F5E069
S11306A0DF011D928A95E9F744E050E069EA71E0C0
S11306B087EB95E00E94BD12282F392F81E0232B70
S11306C039F080E008958BE792E00E94A20B80E06D
S11306D0089580EA92E00E94A20B81E08093630671
S11306E080916306882399F080916206882349F0FB
S11306F089EB92E00E94A20B0E94130381111092D5
S1130700630610926206809163068111EDCF08950D
S113071081E0809357068FEC92E00E94A20B0E9426
S1130720E5000B9720F4809159068823C1F31092B9
S1130730570680915906882341F081EE92E00E9489
S1130740A20B1092590680E0089581E008952F923B
S11307503F924F925F926F927F928F929F92AF924D
S1130760BF92CF92DF92EF92FF920F931F93CF939A
S1130770DF9381E080935C068093600600E010E0E4
S1130780412C512CE12CF12C612C712C812C912CBD
S1130790A12CB12CC12CD12C64C180916106882379
S11307A009F42AC10E94E500EC010817190709F4AD
S11307B04AC0009709F44AC061E070E08DE090E01F
S11307C00E94E605DF93CF9386EF92E09F938F9389
S11307D001E016E01F930F930E941113C8010E94B9
S11307E03006BE0180E090E00E94AE0C2AE939E9AF
S11307F04CEC53E40E941A0CF62EE72E582E492E88
S1130800662E772E882E992E61E070E083E090E0CA
S11308100E94E6054F925F92EF92FF928AEF92E078
S11308209F938F931F930F930E941113C8010E94EB
S113083030068DB79EB70E960FB6F8949EBF0FBEC6
S11308408DBF8E012DC00115110551F5642D752D37
S11308508E2D9F2D0E94EB0C0E94820C70939D059F
S113086060939C0560919C0570919D0580E090E0EB
S11308700E94AE0C9B01AC01642D752D8E2D9F2D15
S11308800E94B10B20E030E048EC52E40E94B30D2A
S11308900E94820C70939F0560939E0510926006DF
S11308A0262D372D482D592D6A2D7B2D8C2D9D2DD0
S11308B00E94B20BE62EF72ED82FC92FA62EB72EE4
S11308C0C82ED92E62E070E083E090E00E94E60535
S11308D020E03CE34CE156E46E2D7F2D8D2F9C2FC0
S11308E00E94160C8823BCF4CF93DF93FF92EF92FF
S11308F08FEF92E09F938F9381E096E09F938F9385
S11309000E9411138DB79EB708960FB6F8949EBF38
S11309100FBE8DBF16C0CF93DF93FF92EF9284E09A
S113092093E09F938F9381E096E09F938F930E942F
S113093011138DB79EB708960FB6F8949EBF0FBEDD
S11309408DBF81E096E00E94300620E030E040E078
S11309505FE36E2D7F2D8D2F9C2F0E94B30DC62F2C
S1130960D72F382E292E462E572EE82EF92E62E048
S113097070E08BE090E00E94E60520E030E046EC79
S113098052E46C2F7D2F832D922D0E94160C882308
S1130990BCF42F923F92DF93CF938FEF92E09F931B
S11309A08F9381E096E09F938F930E9411138DB7EC
S11309B09EB708960FB6F8949EBF0FBE8DBF16C0A3
S11309C02F923F92DF93CF9389E093E09F938F938D
S11309D081E096E09F938F930E9411138DB79EB789
S11309E008960FB6F8949EBF0FBE8DBF81E096E0C7
S11309F00E9430061092610680915F06882389F177
S1130A0081E00E942108833451F5642D752D8E2DCB
S1130A109F2D0E94EB0C0E94820C70939D056093A5
S1130A209C0560919C0570919D0580E090E00E947A
S1130A30AE0C9B01AC01642D752D8E2D9F2D0E9453
S1130A40B10B20E030E048EC52E40E94B30D0E9468
S1130A50820C70939F0560939E051092600610921D
S1130A605F0680916006811198CE10925C068EE03C
S1130A7093E00E94A20B80919C0590919D059F9309
S1130A808F9383E193E09F938F9382EB95E09F9301
S1130A908F930E94111382EB95E00E94A20B88E1D0
S1130AA093E00E94A20B80919E0590919F059F93D5
S1130AB08F938FE193E09F938F938FEA95E09F93B9
S1130AC08F930E9411138FEA95E00E94A20B84E297
S1130AD093E00E94A20B80915A0590915B059F932D
S1130AE08F9385E393E09F938F9389EA95E09F9397
S1130AF08F930E94111389EA95E00E94A20B8DB78F
S1130B009EB742960FB6F8949EBF0FBE8DBFDF917D
S1130B10CF911F910F91FF90EF90DF90CF90BF90F6
S1130B20AF909F908F907F906F905F904F903F9089
S1130B302F9008959CB590629CBD219A299A209A81
S1130B4028983C9A44980E9473088CB58F7D8CBD7C
S1130B50289A299887EC90E00197F1F700C00000EB
S1130B6028988FE79CE00197F1F700C000000895F2
S1130B702FEF80E792E0215080409040E1F700C0E1
S1130B80000088E30E949A0587EC90E00197F1F752
S1130B9000C000008FE00E949A058FEC97E0019757
S1130BA0F1F700C0000081E00E949A058FE891E00F
S1130BB00197F1F700C0000086E00E949A058FE9D2
S1130BC09FE00197F1F700C00000089562307105BD
S1130BD029F4982F905F9093000102C08093000144
S1130BE090E4699F800D1124815480680E949A05C5
S1130BF00895CF93C82F90910001913139F462E0A8
S1130C0070E081E090E00E94E6050BC0913249F467
S1130C1061E070E081E090E00E94E60581E080936D
S1130C2000013C9A449A8CB580628CBD219A299A21
S1130C30209A28988C2F0E9473088CB58F7D8CBDC8
S1130C40289A299887EC90E00197F1F700C00000FA
S1130C502898809100018F5F80930001CF910895BF
S1130C60CF93DF93EC018881882331F021960E9491
S1130C70F90589918111FBCFDF91CF91089581E02E
S1130C800E949A0508958830910509F425C194F4C9
S1130C908430910509F46FC034F4009711F103977F
S1130CA009F049C135C08630910509F4DBC00CF068
S1130CB006C1C1C08B30910509F47DC044F489306C
S1130CC0910509F416C10A9709F035C13EC08D306B
S1130CD0910509F4DDC00CF48EC00E9709F02BC108
S1130CE015C10E943F0661E070E081E090E00E943F
S1130CF0E6058AE393E00E94300662E070E081E05A
S1130D0090E00E94E60582E493E00E943006089594
S1130D100E943F0661E070E081E090E00E94E605F9
S1130D208DE493E00E94300662E070E087E090E09A
S1130D300E94E6058BE593E00E94300662E070E0D5
S1130D4081E090E00E94E60508950E943F0661E07C
S1130D5070E081E090E00E94E60586E693E00E9460
S1130D6030062FEF87EA91E6215080409040E1F76A
S1130D7000C0000008950E943F0661E070E081E039
S1130D8090E00E94E60583E793E00E94300662E06B
S1130D9070E081E090E00E94E60582E893E00E9422
S1130DA030062FEF87EA91E6215080409040E1F72A
S1130DB000C0000008950E943F0661E070E081E0F9
S1130DC090E00E94E6058CE893E00E94300662E021
S1130DD070E081E090E00E94E60589E993E00E94DA
S1130DE030062FEF87EA91E6215080409040E1F7EA
S1130DF000C0000008950E943F0661E070E081E0B9
S1130E0090E00E94E60589EA93E00E94300662E0E1
S1130E1070E081E090E00E94E60589EB93E00E9497
S1130E2030062FEF87EA91E6215080409040E1F7A9
S1130E3000C0000008950E943F0661E070E081E078
S1130E4090E00E94E60585EC93E00E94300662E0A3
S1130E5070E081E090E00E94E60582ED93E00E945C
S1130E60300608950E943F0661E070E081E090E062
S1130E700E94E60583EE93E00E9430062FEF87EA96
S1130E8091E6215080409040E1F700C000000895B1
S1130E900E943F0661E070E081E090E00E94E60578
S1130EA084EF93E00E94300662E070E081E090E01D
S1130EB00E94E60580E094E00E94300608950E94B6
S1130EC03F0661E070E081E090E00E94E6058CE07E
S1130ED094E00E94300608950E943F0661E070E0AD
S1130EE081E090E00E94E6058BE194E00E943006E8
S1130EF008950E943F0661E070E081E090E00E9466
S1130F00E6058AE294E00E94300608950E943F06B6
S1130F1061E070E081E090E00E94E6058AE394E0FD
S1130F200E9430062FEF87EA91E6215080409040DE
S1130F30E1F700C0000008958E3C09F463C008F591
S1130F408D3709F443C070F48F3009F457C020F48E
S1130F50882309F44FC05AC0873771F18B3709F0E1
S1130F6055C02EC08B3B71F130F48E37B9F1873BFD
S1130F7009F04CC04DC08D3B59F18E3B09F046C081
S1130F802BC0873EA9F158F48B3DF1F018F4873D4E
S1130F90E9F514C08D3DF1F08E3DC1F521C08E3EC2
S1130FA009F128F48B3E11F18D3E81F51DC0803F7F
S1130FB039F18F3F59F520C081E3089583E3089503
S1130FC084E3089585E3089586E3089587E3089507
S1130FD088E3089589E3089580E3089581E40895FA
S1130FE082E4089583E4089584E4089585E40895EB
S1130FF086E408958CE4089588E4089581E50895CD
S113100080E508950E943F0680E0089588E50895EC
S113101082E3089590914D0689130DC080914E0688
S1131020853021F410924E0681E008958F5F8093FD
S11310304E0680E0089580934D0610924E0680E09F
S113104008951F93CF93DF93182F97B19F6097B99B
S113105088B118B88AB11AB89BB1906F9BB987EC64
S113106090E00197F1F700C00000C9B1C07F87B1DB
S113107017B898B19F6098B99AB1906F9AB98BB12B
S11310801BB887EC90E00197F1F700C0000096B11F
S11310909F70C92BCF3FA9F08C2F0E949C07D82F9B
S11310A080934F0680915006D81779F08C2F0E94B8
S11310B00A08882361F0D0935006112349F0CD2FFC
S11310C007C010925006C0E003C0C0E001C0C0E0F9
S11310D08C2FDF91CF911F91089584B18C6284B9D4
S11310E082E58CBD08958EBD0DB407FEFDCF089535
S11310F0E9E6F0E080818F6080838DB383608DBBEF
S11311008AB1837F8AB9229A2A9A089589E08093C2
S113111081008FE79EE3909389008093880082E0AA
S113112080936F0008951F920F920FB60F921124AF
S11311302F938F939F93EF93FF93809151069091F8
S113114052062091C600FC01E45AFA4F20832A3249
S113115041F4109252061092510681E08093560693
S113116005C001969093520680935106FF91EF912A
S11311709F918F912F910F900FBE0F901F901895F4
S11311801F920F920FB60F9211248F939F93809109
S113119060068823F1F08091090190910A0101977A
S11311A090930A0180930901892BC9F480915A050F
S11311B090915B05019690935B0580935A0588EEA8
S11311C093E090930A018093090181E08093610682
S11311D006C088EE93E090930A0180930901809100
S11311E05C068823A9F0809107019091080101977A
S11311F09093080180930701892B81F489E090E0A2
S1131200909308018093070181E080935F0606C0F4
S113121089E090E09093080180930701809158063B
S11312208823A9F08091050190910601019790937C
S1131230060180930501892B81F480E197E2909364
S113124006018093050181E080935A0606C080E17F
S113125097E29093060180930501809157068823B5
S1131260A9F08091030190910401019790930401E6
S113127080930301892B81F480E197E29093040128
S11312808093030181E08093590606C080E197E2D0
S11312909093040180930301809163068823A9F04D
S11312A08091010190910201019790930201809332
S11312B00101892B81F480E69AEE909302018093D8
S11312C0010181E08093620606C080E69AEE909365
S11312D00201809301019F918F910F900FBE0F9097
S11312E01F9018951F920F920FB60F9211248F938F
S11312F080915D06811103C081E080935E068F9129
S11313000F900FBE0F901F9018951F920F920FB65B
S11313100F9211248F9381E080935D068F910F903B
S11313200FBE0F901F9018950E946D080E948D0BA0
S11313300E9478080E9486080E94B8050E94D40082
S1131340789486E494E00E94A20B23E630E0C8E09F
S1131350D0E00F2EFEE0CF2ED12CF02D0F2EF5E095
S11313608F2E912CF02D0F2EF9E06F2E712CF02D75
S11313706894222422F8312C0F2EF6E0EF2EF12C63
S1131380F02D0F2EF7E04F2E512CF02D03E010E03E
S11313900F2EFCE0AF2EB12CF02D01C09C018091EA
S11313A05306909154068217930741F420915E06E8
S11313B02223A1F3009791F19C01F1CF873091058D
S11313C009F44BC194F48330910509F48DC034F4CD
S11313D0009721F1029709F09BC144C08530910523
S11313E009F406C10CF019C1D0C08A30910509F482
S11313F0B9C044F48830910509F446C1099709F04D
S113140087C162C18D30910509F4D2C08E30910537
S113141009F46FC10C9709F07BC153C082E594E0D5
S11314200E94A20B80915306909154060E94430699
S113143080915E06882389F08EE594E00E94A20BD9
S11314400E94F400209153063091540682E090E00B
S11314509093540680935306A2CF20915306309163
S113146054069DCF8DE694E00E94A20B80915B060A
S11314708823F1F08FE794E00E94A20B0E942F02D0
S1131480882349F020915306309154061093540652
S1131490009353060AC020915306309154068AE003
S11314A090E0909354068093530610925B0677CF96
S11314B02091530630915406B0925406A0925306DC
S11314C06ECF89E894E00E94A20B8091530690911C
S11314D054060E94430620915306309154061092FC
S11314E05406109253065BCF8BE994E00E94A20B42
S11314F080915306909154060E9443060E948502EF
S11315008823C1F00E94E500059758F42091530602
S1131510309154068DE090E09093540680935306E6
S11315203ECF2091530630915406909254068092F7
S1131530530635CF80915506882359F010925506ED
S1131540209153063091540610925406109253067B
S113155026CF20915306309154063092540620929F
S113156053061DCF8FEA94E00E94A20B809153068C
S1131570909154060E9443062091530630915406DC
S113158010925406109253060ACF82EC94E00E9403
S1131590A20B80915306909154060E944306209119
S11315A05306309154061093540600935306F7CE15
S11315B087ED94E00E94A20B80915306909154060B
S11315C00E9443060E948803882349F02091530611
S11315D0309154069092540680925306E0CE2091A6
S11315E05306309154061092540610925306D7CEE7
S11315F089EE94E00E94A20B8091530690915406C8
S11316000E9443060E94A70320915306309154067A
S1131610F0925406E0925306C2CE89EF94E00E9401
S1131620A20B80915306909154060E9443060E9497
S1131630E500069748F020915306309154065092E5
S1131640540640925306ABCE209153063091540673
S1131650D0935406C0935306A2CE80E195E00E9435
S1131660A20B80915306909154060E9443060E9457
S1131670E5000697E0F72091530630915406D09385
S11316805406C09353068BCE85E295E00E94A20BCC
S113169080915306909154060E9443060E941303BE
S11316A0882349F020915306309154061092540631
S11316B01092530674CE20915306309154067092C2
S11316C05406609253066BCE87E395E00E94A20B0A
S11316D080915306909154060E9443060E94690328
S11316E020915306309154061092540610925306DA
S11316F056CE88E495E00E94A20B80915306909107
S113170054060E944306209153063091540647CE56
S1131710D0925406C092530642CE88E98093C10009
S113172086E08093C20082E08093C00087E68093C5
S1131730C4000895E0ECF0E0908195FFFDCF809324
S1131740C6000895CF93DF93EC018881882331F09C
S113175021960E949A0B89918111FBCFDF91CF9141
S113176008955058BB27AA270ED0ACC19DD130F0A4
S1131770A2D120F031F49F3F11F41EF492C10EF473
S1131780E095E7FB5FC1E92FAED180F3BA1762079A
S113179073078407950718F071F49EF5DDC10EF404
S11317A0E0950B2EBA2FA02D0B01B90190010C016D
S11317B0CA01A0011124FF27591B99F0593F50F485
S11317C0503E68F11A16F040A22F232F342F4427DD
S11317D0585FF3CF469537952795A795F0405395D5
S11317E0C9F77EF41F16BA0B620B730B840BBAF0A5
S11317F09150A1F0FF0FBB1F661F771F881FC2F710
S11318000EC0BA0F621F731F841F48F48795779523
S11318106795B795F7959E3F08F0B3CF9395880FDA
S113182008F09927EE0F979587950895E7D008F467
S113183081E008950CD046C13ED140F035D130F05E
S113184021F45F3F19F0FEC0511187C12AC14BD169
S113185098F39923C9F35523B1F3951B550BBB2773
S1131860AA2762177307840738F09F5F5F4F220F20
S1131870331F441FAA1FA9F333D00E2E3AF0E0E819
S113188030D091505040E695001CCAF729D0FE2F65
S113189027D0660F771F881FBB1F261737074807F7
S11318A0AB07B0E809F0BB0B802DBF01FF279358AD
S11318B05F4F2AF09E3F510568F0C4C04EC15F3FA0
S11318C0ECF3983EDCF3869577956795B795F79595
S11318D09F5FC9F7880F911D9695879597F908958D
S11318E0E1E0660F771F881FBB1F62177307840729
S11318F0BA0720F0621B730B840BBA0BEE1F88F738
S1131900E0950895F8D088F09F5790F0B92F992763
S1131910B751A0F0D1F0660F771F881F991F1AF0F6
S1131920BA95C9F712C0B13081F016D1B1E008956B
S113193013C1672F782F8827B85F39F0B93FCCF3EC
S1131940869577956795B395D9F73EF490958095EC
S1131950709561957F4F8F4F9F4F0895E89409C00C
S113196097FB3EF490958095709561957F4F8F4FCE
S11319709F4F9923A9F0F92F96E9BB279395F695E4
S1131980879577956795B795F111F8CFFAF4BB0F62
S113199011F460FF1BC06F5F7F4F8F4F9F4F16C0C6
S11319A0882311F096E911C0772321F09EE8872F50
S11319B0762F05C0662371F096E8862F70E060E00C
S11319C02AF09A95660F771F881FDAF7880F969585
S11319D0879597F90895A9D080F09F3740F4911125
S11319E00EF0BBC060E070E080E89FEB089526F441
S11319F01B16611D711D811D2BC045C0990F000868
S1131A00550FAA0BE0E8FEEF16161706E807F907CC
S1131A10C0F012161306E407F50798F0621B730B67
S1131A20840B950B39F40A2661F0232B242B252BE8
S1131A3021F408950A2609F4A140A6958FEF811D8B
S1131A40811D089597F99F6780E870E060E008952C
S1131A50882371F4772321F09850872B762F07C0C1
S1131A60662311F499270DC09051862B70E060E035
S1131A702AF09A95660F771F881FDAF7880F9695D4
S1131A80879597F908959F3F31F0915020F48795F9
S1131A9077956795B795880F911D9695879597F9D2
S1131AA008959FEF80EC089500240A9416161706F3
S1131AB018060906089500240A941216130614063B
S1131AC005060895092E0394000C11F4882352F09E
S1131AD0BB0F40F4BF2B11F460FF04C06F5F7F4F56
S1131AE08F4F9F4F089557FD9058440F551F59F03D
S1131AF05F3F71F04795880F97FB991F61F09F3FF7
S1131B0079F087950895121613061406551FF2CF1F
S1131B104695F1DF08C0161617061806991FF1CF6F
S1131B2086957105610508940895E5DFA0F0BEE788
S1131B30B91788F4BB279F3860F41616B11D672FB8
S1131B40782F8827985FF7CF869577956795B11D8D
S1131B5093959639C8F30895E894BB2766277727A9
S1131B60CB0197F908950BD0ADCF9EDF28F0A3DF0A
S1131B7018F0952309F066CF94CF1124EECFB3DF8C
S1131B80A0F3959FD1F3950F50E0551F629FF0018C
S1131B90729FBB27F00DB11D639FAA27F00DB11DE5
S1131BA0AA1F649F6627B00DA11D661F829F22276E
S1131BB0B00DA11D621F739FB00DA11D621F839FF5
S1131BC0A00D611D221F749F3327A00D611D231FCB
S1131BD0849F600D211D822F762F6A2F11249F5719
S1131BE050408AF0E1F088234AF0EE0FFF1FBB1F3C
S1131BF0661F771F881F91505040A9F79E3F5105DB
S1131C0070F020CFAACF5F3FECF3983EDCF38695CB
S1131C1077956795B795F795E7959F5FC1F7FE2B85
S1131C20880F911D9695879597F90895A2E1B0E0E4
S1131C30ECE1FEE00C9498117C011B016A01FC01AB
S1131C4017821682838181FD03C06BC3650105C0C1
S1131C5088248394912C8C0E9D1EF7019381F101AD
S1131C6093FD859193FF81911F01882309F455C346
S1131C70853239F493FD859193FF81911F0185325B
S1131C8031F4B70190E00E94E5125601DFCF712CC8
S1131C90612C20E02032A8F48B3261F028F48032E9
S1131CA051F0833271F40BC08D3239F0803349F432
S1131CB0216028C02260246025C0286023C02061E0
S1131CC021C027FD27C0382F30533A3078F426FF3F
S1131CD006C0FAE07F9E300D1124732E13C04AE033
S1131CE0649E300D1124632E20620CC08E3221F4C8
S1131CF026FD13C3206406C08C3611F4206802C08C
S1131D00883641F4F10193FD859193FF81911F0180
S1131D108111C0CF982F9554933018F42061805EC0
S1131D2006C0982F9556933008F0A4C12F7E26FD47
S1131D3002C016E0712EBFE35B2E5222853619F4E1
S1131D40F0E45F2A07C0863619F440E8542A02C03A
S1131D5071107A9457FE07C05BE3571548F0472C7F
S1131D60439427E00DC087E0871530F0272D07C086
S1131D7027E0ACE34A2E04C027E0F7E07F2E412C95
S1131D80560194E0A90EB11CF60160817181828133
S1131D909381042DA4010E94CF118C0149814C87A9
S1131DA040FF02C043FF07C051FC08C052FE09C0F7
S1131DB0E0E2DE2E07C07DE2D72E04C06BE2D62E11
S1131DC001C0D12C8C858C70A1F1DD2011F084E050
S1131DD001C083E0861510F0612C0BC0681A53FC17
S1131DE008C0B70180E290E00E94E5126A94C9F746
S1131DF0F3CFDD2029F0B7018D2D90E00E94E5128C
S1131E005C8553FD03C00CE610E00CC008E610E04E
S1131E1009C051108052B70190E00E94E5120F5F93
S1131E201F4F02C080E15822F80184918111F1CF43
S1131E3071C257FE0EC0400E4C8544FF04C08A8117
S1131E40813309F44A9414144CF558E0541548F1BC
S1131E502CC056FC2AC0872D90E08017910744F0CF
S1131E600C3F8FEF180724F090E8592A01C07A94A8
S1131E70772049F0E2E0F0E0EC0FFD1FE70DF11DE3
S1131E8080818033A1F357FE10C0472C4394872DE3
S1131E9090E00817190744F4701A07C044244394C7
S1131EA004C058E0452E01C0712C57FE07C010161F
S1131EB011063CF498012F5F3F4F05C025E030E048
S1131EC002C021E030E0DD2011F02F5F3F4F77208A
S1131ED031F0472D50E04F5F5F4F240F351F462DE3
S1131EE050E02417350714F4621A01C0612C852DC3
S1131EF0897049F406C0B70180E290E00E94E512BF
S1131F006A946110F8CFDD2029F0B7018D2D90E09F
S1131F100E94E51253FC09C006C0B70180E390E0BB
S1131F200E94E5126A946110F8CF57FE56C068010A
S1131F3017FF02C0C12CD12C20E030E0A8014419C5
S1131F4051095E874D8728014C185D08480C591CBF
S1131F50872D90E044275527481B590B588B4F87F2
S1131F605FEFC516D50649F4B7018EE290E02A8BDF
S1131F70398B0E94E51239892A890C151D0554F004
S1131F804D855E854C155D052CF4F201E20FF31FBF
S1131F90818101C080E351E0C51AD1082F5F3F4F12
S1131FA04F855889C416D5064CF0B70190E02A8BAA
S1131FB0398B0E94E5122A893989D2CFC016D106FD
S1131FC049F49A81963328F4953321F45C8554FDC1
S1131FD001C081E3B70190E04AC08A81813319F0DE
S1131FE04C854F7E4C87B70190E00E94E51271103A
S1131FF005C054FE16C085E490E015C0B7018EE21A
S113200090E00E94E51242E0D42EF401ED0DF11DA2
S1132010D394B701808190E00E94E5127A94A9F7E5
S1132020E8CF85E690E0B7010E94E51217FD06C0EF
S11320300115110541F45C8554FF05C01195019506
S113204011098DE201C08BE2B70190E00E94E51214
S113205080E303C08F5F0A5011090A301105D4F7D9
S1132060B70190E00E94E512B701C801C0960E9432
S1132070E51250C1833631F0833781F0833509F09E
S11320805EC024C0560182E0A80EB11CF601808116
S11320908983CC24C394D12C840114C05601F2E06A
S11320A0AF0EB11CF6010081118126FF03C0672D1C
S11320B070E002C06FEF7FEFC8012A8B0E94DA1232
S11320C06C012A899FE7592E522217C05601F2E06B
S11320D0AF0EB11CF6010081118126FF03C0672DEC
S11320E070E002C06FEF7FEFC8012A8B0E94A71235
S11320F06C012A8980E8582E522A53FC1CC006C061
S1132100B70180E290E00E94E5126A94862D90E087
S1132110C816D906A8F30FC0F80157FC859157FEDD
S113212081918F01B70190E00E94E51261106A94D9
S1132130F1E0CF1AD108C114D10471F7EBC0843691
S113214011F0893651F5560127FF09C044E0A40E69
S1132150B11CF60160817181828193810AC0F2E031
S1132160AF0EB11CF60160817181882777FD8095DF
S1132170982F122F1F7697FF08C090958095709521
S113218061957F4F8F4F9F4F10682AE030E0A40184
S11321900E943313D82ED81840C0122F853721F44B
S11321A01F7E2AE030E01FC0197F8F36A1F020F493
S11321B0883509F0B2C00BC0803721F0883709F0A8
S11321C0ACC001C0106114FF09C0146007C024FF33
S11321D008C0166006C028E030E005C020E130E009
S11321E002C020E132E0560117FF09C0F4E0AF0E4F
S11321F0B11CF601608171818281938108C0F2E093
S1132200AF0EB11CF6016081718180E090E0A40101
S11322100E943313D82ED8181F7716FF0BC0212F16
S11322202E7FD71450F414FF0AC012FD08C0212FCA
S11322302E7E05C00D2D212F03C00D2D01C0072DAD
S113224024FF0CC0FE01ED0DF11D8081803311F4DB
S1132250297E08C022FF05C00E5F04C0822F867845
S113226009F00F5F23FD14C020FF0FC07D2C06155D
S113227060F4760C701A062D08C0B70180E290E075
S11322802A8B0E94E5120F5F2A890615B0F304C059
S1132290061510F4601A01C0612C24FF12C0B701A6
S11322A080E390E02A8B0E94E5122A8922FF1EC057
S11322B021FF03C088E590E002C088E790E0B70101
S11322C00CC0822F867891F021FD02C080E201C00B
S11322D08BE227FD8DE2B70190E00E94E51206C073
S11322E0B70180E390E00E94E5127A94D714C0F31A
S11322F0DA94F401ED0DF11DB701808190E00E94A4
S1132300E512D110F5CF06C0B70180E290E00E943B
S1132310E5126A946110F8CF99CCF70126813781D0
S113232002C02FEF3FEFC9016296E2E10C94B411B1
S11323302F923F924F925F926F927F928F929F92D1
S1132340AF92BF92CF92DF92EF92FF920F931F93BF
S1132350CF93DF93CDB7DEB7CA1BDB0B0FB6F89470
S1132360DEBF0FBECDBF09942A88398848885F84B0
S11323706E847D848C849B84AA84B984C884DF8021
S1132380EE80FD800C811B81AA81B981CE0FD11D05
S11323900FB6F894DEBF0FBECDBFED01089528300F
S11323A008F027E03327DA01990F311D87FD91608A
S11323B000966105710539F432602E5F3D9330E378
S11323C02A95E1F708959F3F30F080387105610543
S11323D009F03C5F3C5F3D93913008F08068911DAB
S11323E0DF93CF931F930F93FF92EF92192F987F50
S11323F09695E92F96959695E90FFF27E653FF4F9B
S113240099273327EE24FF24A701E70105900894B8
S1132410079428F4360FE71EF81E491F511D660F56
S1132420771F881F991F0694A1F70590079428F435
S1132430E70EF81E491F561FC11D770F881F991FED
S1132440661F0694A1F70590079428F4F80E491F17
S1132450561FC71FD11D880F991F661F771F06942B
S1132460A1F70590079420F4490F561FC71FD81FE2
S1132470990F661F771F881F0694A9F784911095FA
S1132480177041F0D695C79557954795F794E794FB
S11324901A95C1F7E0E7F0E068941590159135912D
S11324A06591959105907FE27395E118F10A430BCC
S11324B0560BC90BD009C0F7E10CF11E431F561F80
S11324C0C91FD01D7EF4703311F48A95E6CFE894C9
S11324D0015030F0080F0AF40027021708F4202FE7
S11324E02395022F7A3328F079E37D932A95E9F72F
S11324F010C07D932A9589F606949795679537952C
S113250017951794E118F10A430B560BC90BD00920
S113251098F023957E9173957A3308F070E37C9359
S11325202013B8F77E9170617D9330F0839571E349
S11325307D9370E32A95E1F71124EF90FF900F91BA
S11325401F91CF91DF91992787FD90950895FC0104
S11325500590615070400110D8F7809590958E0FCA
S11325609F1F0895FB01DC010D900020E9F71197EE
S113257001900D920020E1F70895FB01DC01415028
S1132580504030F08D910190801919F40020B9F772
S1132590881B990B0895FB01DC014150504048F021
S11325A001900D920020C9F701C01D924150504086
S11325B0E0F70895FC016150704001900110D8F7D4
S11325C0809590958E0F9F1F08950F931F93CF931F
S11325D0DF938C01EB018B8181FD03C00FEF1FEFB3
S11325E01AC082FF0DC02E813F818C819D812817E6
S11325F0390764F4E881F9810193F983E88306C01B
S1132600E885F985802F0995892B41F78E819F8173
S113261001969F838E83C801DF91CF911F910F9103
S11326200895AEE0B0E0E7E1F3E10C94A6110D8962
S11326301E8986E08C831A8309838FEF9FE79E832C
S11326408D83CE014996AC016F89788DCE010196B8
S11326500E94160EEF81F885E00FF11F10822E966E
S1132660E4E00C94C211FA01AA27283051F1203178
S113267081F1E8946F936E7F6E5F7F4F8F4F9F4F12
S1132680AF4FB1E03ED0B4E03CD0670F781F891F54
S11326909A1FA11D680F791F8A1F911DA11D6A0F22
S11326A0711D811D911DA11D20D009F468943F91D5
S11326B02AE0269F11243019305D3193DEF6CF01D4
S11326C00895462F4770405D4193B3E00FD0C9F79A
S11326D0F6CF462F4F70405D4A3318F0495D31FD07
S11326E04052419302D0A9F7EACFB4E0A69597955A
S11326F0879577956795BA95C9F700976105710530
S113270008959B01AC010A2E069457954795379579
S11327102795BA95C9F7620F731F841F951FA01DD3
S10927200895F894FFCFB8
S11327260160EA102710270900E803446174612058
S11327365265616479200A00554944203D200025EC
S11327465800436F6D6D616E64206661696C6564E3
S1132756200A0052464944207265616465722074F9
S1132766696D656F7574200A00256300252500458B
S113277672726F7220436F6D6D616E642053746163
S11327867465005061636B65742073656E640A003A
S11327967265636569766542756666657220636F00
S11327A66E74656E740A0076616C69646174652082
S11327B6636172642070617373526573756C7420FF
S11327C6636F6E74656E740A007472756500436196
S11327D672646B6E6F776E20636F6D6D756E696371
S11327E66174696F6E2074696D656F75740A005043
S11327F6617373776F72642074797065640A005428
S113280641494420636F6E74656E740A0070617387
S113281673776F7264526573756C7420636F6E742C
S1132826656E740A0056616C696461746520706132
S11328367373776F726420636F6D6D756E69636110
S113284674696F6E2074696D656F75740A007265BC
S1132856636569766542756666657220636F6E7434
S1132866656E742E2045787065637465643A202518
S113287630303141747275652A0A0041636B6E6F9C
S1132886776C656467652070617373526573756CE4
S11328967420636F6E74656E740A0055706C6F6194
S11328A6642043686172676520436F6D6D756E6958
S11328B6636174696F6E2074696D656F75740A005F
S11328C654727920636F6E6E656374696F6E2066E9
S11328D6756E6374696F6E0A0074727920636F6E25
S11328E66E65637420696E74657276616C0A00772E
S11328F661697420666F722074696D656F75740AF8
S113290600636F6E6E656374206361722074696D13
S1132916656F75740A0025347500252E3266002508
S11329262E31660025352E660025342E66000A4BA8
S113293672200025303475000A4F65726520002523
S1132946303275000A54696D6520696E20736563BB
S11329566F6E647300253035750057656C636F6D53
S11329666500537769706520436172640054797019
S1132976652050617373776F72640043203D206352
S1132986616E63656C006361726420756E6B6E6F55
S1132996776E0077726F6E672070617373776F72EC
S11329A6640074727920616761696E0063617264A0
S11329B620626C6F636B656400636F6E746163742D
S11329C6207365727669636500636172642072655B
S11329D66164206572726F72007377697065206135
S11329E66761696E00503A20202020206D572041EF
S11329F63A00453A20202020206D575320202020DD
S1132A066B72004368617267696E672073746F70D6
S1132A1670656400436F6E6E656374204361720073
S1132A26746F20636F6E74696E75650044697363B1
S1132A366F6E6E656374204361720055706C6F61CE
S1132A4664696E67206461746100436861726765D6
S1132A5672204F66666C696E65004572726F7220ED
S1132A6653746174650043617264207465737420E1
S1132A760A00737461746549646C65200A004361D5
S1132A8672642050726573656E74200A00737461F3
S1132A96746543617264537769706564200A0067DC
S1132AA66F7420554944200A00446964206E6F748B
S1132AB62067657420554944200A0073746174655F
S1132AC65479706550617373776F7264200A00736A
S1132AD674617465556E6B6E6F776E4361726420B4
S1132AE60A00737461746557726F6E67506173730D
S1132AF6776F7264200A007374617465436F6E6E37
S1132B06656374436172200A007374617465436873
S1132B16617267696E67200A00737461746543683D
S1132B26617267696E6753746F70706564200A001A
S1132B367374617465446973636F6E6E656374431D
S1132B466172200A00737461746555706C6F6164F8
S1132B56546F4442200A00737461746544426F667C
S1132B66666C696E65200A007374617465457272D9
S10D2B766F725374617465200A0045
S9030000FC
