:100000000C94B5000C9421020C9434020C94D20090
:100010000C94D2000C94D2000C94D2000C94D20018
:100020000C94D2000C94D2000C94D2000C94CB010E
:100030000C94D2000C94D2000C94D2000C94D200F8
:100040000C94D2000C94D2000C94B6010C94D20003
:100050000C94D2000C94D2000C94D2000C94D200D8
:100060000C94D2000C94D2006E616E00696E660032
:1000700000407A10F35A00A0724E18090010A5D45F
:10008000E80000E87648170000E40B54020000CABC
:100090009A3B000000E1F505000080969800000002
:1000A00040420F000000A086010000001027000061
:1000B0000000E803000000006400000000000A00E7
:1000C000000000000100000000002C76D888DC67EA
:1000D0004F0823DFC1DFAE59E1B1B796E5E3E45342
:1000E000C63AE651997696E8E6C28426EB898C9B5F
:1000F00062ED407C6FFCEFBC9C9F40F2BAA56FA5FF
:10010000F490055A2AF75C936B6CF9676DC11BFC80
:10011000E0E40D47FEF520E6B500D0ED902E03009B
:10012000943577050080841E080000204E0A0000E8
:1001300000C80C333333330F986E12831141EF8DA7
:100140002114893BE65516CFFEE6DB18D1844B38E7
:100150001BF77C1D901DA4BBE424203284725E2218
:100160008100C9F124ECA1E53D2711241FBECFEF8A
:10017000D8E0DEBFCDBF12E0A0E0B1E0E4E9F5E1F8
:1001800002C005900D92AA3CB107D9F723E0AAEC72
:10019000B2E001C01D92A234B207E1F70E94F80359
:1001A0000C94C80A0C9400003D98ECE7F0E08081C4
:1001B00085608083EEE7F0E0808180628083EAE7FB
:1001C000F0E08081876980830895EAE7F0E080812C
:1001D00080648083808184FFFDCF209178003091FE
:1001E0007900822F932F08959CB590629CBD219A2F
:1001F000299A209A28983C9A44980E94A3018CB589
:100200008F7D8CBD289A299887EC90E00197F1F7B3
:1002100000C0000028988FE79CE00197F1F700C02C
:10022000000008952FEF80E792E021508040904039
:10023000E1F700C0000088E30E94F40087EC90E042
:100240000197F1F700C000008FE00E94F4008FECEE
:1002500097E00197F1F700C0000081E00E94F400F0
:100260008FE891E00197F1F700C0000086E00E945E
:10027000F4008FE99FE00197F1F700C000000895B6
:100280006230710529F4982F905F9093000102C0AD
:100290008093000190E4699F800D1124815480684F
:1002A0000E94F4000895CF93C82F909100019131DE
:1002B00039F462E070E081E090E00E9440010BC000
:1002C000913249F461E070E081E090E00E944001E9
:1002D00081E0809300013C9A449A8CB580628CBD89
:1002E000219A299A209A28988C2F0E94A3018CB5D4
:1002F0008F7D8CBD289A299887EC90E00197F1F7C3
:1003000000C000002898809100018F5F8093000159
:10031000CF910895CF93DF93EC018881882331F04A
:1003200021960E94530189918111FBCFDF91CF91DA
:10033000089581E00E94F400089584B18C6284B92C
:1003400082E58CBD08958EBD0DB407FEFDCF0895E6
:10035000E9E6F0E080818F6080838DB383608DBBA0
:100360008AB1837F8AB9229A2A9A08951F920F929E
:100370000FB60F9211248F938091C6008093400393
:100380001092410381E080933C038F910F900FBE48
:100390000F901F9018951F920F920FB60F92112475
:1003A0008F939F93809105019091060101979093FF
:1003B000060180930501892B31F488EE93E0909338
:1003C000060180930501809103019091040101973A
:1003D0009093040180930301892B69F48091390380
:1003E000882349F089E090E0909304018093030111
:1003F00081E080933D03809136038823A9F08091AA
:1004000001019091020101979093020180930101F3
:10041000892B81F484E690E090930201809301019E
:1004200081E08093370306C084E690E09093020158
:10043000809301019F918F910F900FBE0F901F909D
:1004400018951F920F920FB60F9211248F938091DF
:100450003A03811103C081E080933B038F910F9099
:100460000FBE0F901F9018951F920F920FB60F920C
:1004700011248F9381E080933A038F910F900FBEE8
:100480000F901F90189589E0809381008FE79EE37D
:10049000909389008093880082E080936F00089594
:1004A00080913E0390913F038A30910509F448C042
:1004B0007CF48330910589F11CF4892BB9F0F1C0EB
:1004C0008430910509F452C0059709F0EAC0A5C02F
:1004D0008C30910509F481C00CF45FC08D3091051A
:1004E00009F4B2C00E9709F0DCC0C5C00E949901A2
:1004F00061E070E081E090E00E94400187E091E0DF
:100500000E948A0162E070E081E090E00E94400178
:100510008FE091E00E948A0108950E94990161E0B4
:1005200070E081E090E00E9440018AE191E00E9449
:100530008A0162E070E081E090E00E94400108954D
:100540000E94990161E070E081E090E00E9440012A
:1005500088E291E00E948A012FEF87EA91E621501C
:1005600080409040E1F700C0000008950E9499018A
:1005700061E070E081E090E00E94400185E391E05D
:100580000E948A0162E070E081E090E00E944001F8
:1005900084E491E00E948A0108950E94990161E03B
:1005A00070E081E090E00E9440018FE491E00E94C1
:1005B0008A0162E070E081E090E00E9440018CE5F9
:1005C00091E00E948A012FEF87EA91E62150804056
:1005D0009040E1F700C0000008950E94990161E099
:1005E00070E081E090E00E9440018CE691E00E9482
:1005F0008A0162E070E081E090E00E9440018CE7B7
:1006000091E00E948A012FEF87EA91E62150804015
:100610009040E1F700C0000008950E94990161E058
:1006200070E081E090E00E94400188E891E00E9443
:100630008A0162E070E081E090E00E94400186E97A
:1006400091E00E948A0108950E94990161E070E0A2
:1006500081E090E00E94400183EA91E00E948A01DB
:1006600062E070E081E090E00E9440018FEA91E05A
:100670000E948A0108950E94990161E070E081E082
:1006800090E00E9440018BEB91E00E948A012FEFE5
:1006900087EA91E6215080409040E1F700C00000D9
:1006A00008958EE090E090933F0380933E03089579
:1006B000EF92FF920F931F93CF93DF932A9885E5D4
:1006C0000E94A3012A9A81E08093360310923B0393
:1006D00080913A038823E1F3809137038823C1F3A3
:1006E00080913A03882309F46CC087EC91E00E9462
:1006F0005B052A9885EF0E94A3012A9A8FE891E072
:100700000197F1F700C000008EB5863809F050C09F
:1007100087E0E4EDF1E0AAEEB2E001900D928A9557
:10072000E1F704E010E00F2EFBEDEF2EF1E0FF2EDD
:10073000F02DCAECD2E02A9885EF0E94A3012A9AF4
:100740008FE891E00197F1F700C000008EB51F928D
:100750008F93FF92EF92DF93CF930E94480ABE01DE
:100760008AEE92E00E94060ABE018AE293E00E94AD
:10077000060A015011090F900F900F900F900F90E3
:100780000F90C9F6EAEEF2E001900020E9F7319708
:100790008AE090E0918380838AEE92E00E945B057C
:1007A0008AE293E00E945B0581E08093380306C0F3
:1007B0008EED91E00E945B051092380310923A038F
:1007C00008C08FEE91E00E945B0510923A031092F0
:1007D0003803DF91CF911F910F91FF90EF90089513
:1007E00081E0089581E080933903089581E00895C0
:1007F0000E949D010E9446050E94A8010E9443029A
:100800000E9412010E94D400789481EA91E00E9433
:100810008A0185E092E00E945B0523E630E0C3E0B8
:10082000D0E00EE010E00F2EF5E0CF2ED12CF02D11
:100830000F2EFAE08F2E912CF02D6894EE24E2F822
:10084000F12C0F2EFDE06F2E712CF02D6894AA2450
:10085000A1F8B12C01C09C0180913E0390913F030F
:100860008217930741F420913B032223A1F30097C1
:1008700001F19C01F1CF8430910509F4B1C044F439
:1008800082309105C1F10CF06BC0892B91F0F9C059
:100890008A30910509F491C024F4059709F0F1C05C
:1008A000D2C08D30910509F4AEC00E9709F0E9C0B1
:1008B000D9C081E192E00E945B0580913E03909156
:1008C0003F030E94500280913B03882379F08DE121
:1008D00092E00E945B050E94580320913E033091F4
:1008E0003F03B0923F03A0923E03B6CF20913E0358
:1008F00030913F03B1CF8CE292E00E945B05809182
:1009000038038823E1F08EE392E00E945B050E94A9
:10091000F003882349F020913E0330913F03D093A8
:100920003F03C0933E0308C020913E0330913F0334
:1009300090923F0380923E03109238038DCF88E45B
:1009400092E00E945B058CE090E00E9450022091B2
:100950003E0330913F0310923F0310923E037CCF41
:100960008AE592E00E945B0580913E0390913F03EF
:100970000E9450020E94F2038823B1F00E94E50019
:100980000A9748F420913E0330913F0370923F0351
:1009900060923E0361CF20913E0330913F03D0929D
:1009A0003F03C0923E0358CF20913E0330913F0356
:1009B000F0923F03E0923E034FCF8EE692E00E941A
:1009C0005B0580913E0390913F030E94500220916D
:1009D0003E0330913F0310923F0310923E033CCF01
:1009E00081E892E00E945B0580913E0390913F0375
:1009F0000E94500220913E0330913F03D0933F0369
:100A0000C0933E0329CF86E992E00E945B05809166
:100A10003E0390913F030E9450020E94F6038823F8
:100A200049F020913E0330913F03D0923F03C092A2
:100A30003E0312CF20913E0330913F0310923F03BB
:100A400010923E0309CF88EA92E00E945B058091F4
:100A50003E0390913F030E94500220913E0330914B
:100A60003F03FACE88EB92E00E945B0580913E0343
:100A700090913F030E94500220913E0330913F032A
:100A8000EBCE10933F0300933E03E6CE88E98093BC
:100A9000C10086E08093C20082E08093C00087E6B8
:100AA0008093C4000895E0ECF0E0908195FFFDCFC5
:100AB0008093C6000895CF93DF93EC01888188234B
:100AC00031F021960E94530589918111FBCFDF916E
:100AD000CF910895A2E1B0E0E0E7F5E00C94EC08D6
:100AE0007C011B016A01FC0117821682838181FD52
:100AF00003C06BC3650105C088248394912C8C0EC0
:100B00009D1EF7019381F10193FD859193FF8191E2
:100B10001F01882309F455C3853239F493FD85916B
:100B200093FF81911F01853231F4B70190E00E945B
:100B30001C0A5601DFCF712C612C20E02032A8F472
:100B40008B3261F028F4803251F0833271F40BC0A3
:100B50008D3239F0803349F4216028C0226024604E
:100B600025C0286023C0206121C027FD27C0382F61
:100B700030533A3078F426FF06C0FAE07F9E300DFD
:100B80001124732E13C04AE0649E300D1124632E8D
:100B900020620CC08E3221F426FD13C3206406C0EF
:100BA0008C3611F4206802C0883641F4F10193FDBF
:100BB000859193FF81911F018111C0CF982F95548A
:100BC000933018F42061805E06C0982F95569330BC
:100BD00008F0A4C12F7E26FD02C016E0712EBFE3EF
:100BE0005B2E5222853619F4F0E45F2A07C0863660
:100BF00019F440E8542A02C071107A9457FE07C0D5
:100C00005BE3571548F0472C439427E00DC087E07D
:100C1000871530F0272D07C027E0ACE34A2E04C02B
:100C200027E0F7E07F2E412C560194E0A90EB11C7D
:100C3000F6016081718182819381042DA4010E945B
:100C400023098C0149814C8740FF02C043FF07C044
:100C500051FC08C052FE09C0E0E2DE2E07C07DE272
:100C6000D72E04C06BE2D62E01C0D12C8C858C709F
:100C7000A1F1DD2011F084E001C083E0861510F0C1
:100C8000612C0BC0681A53FC08C0B70180E290E0E9
:100C90000E941C0A6A94C9F7F3CFDD2029F0B7013E
:100CA0008D2D90E00E941C0A5C8553FD03C00CE66C
:100CB00010E00CC008E610E009C051108052B701E6
:100CC00090E00E941C0A0F5F1F4F02C080E1582273
:100CD000F80184918111F1CF71C257FE0EC0400E10
:100CE0004C8544FF04C08A81813309F44A9414146A
:100CF0004CF558E0541548F12CC056FC2AC0872DFD
:100D000090E08017910744F00C3F8FEF180724F014
:100D100090E8592A01C07A94772049F0E2E0F0E0A7
:100D2000EC0FFD1FE70DF11D80818033A1F357FE0D
:100D300010C0472C4394872D90E00817190744F4FE
:100D4000701A07C04424439404C058E0452E01C0E3
:100D5000712C57FE07C0101611063CF498012F5F46
:100D60003F4F05C025E030E002C021E030E0DD204B
:100D700011F02F5F3F4F772031F0472D50E04F5F4C
:100D80005F4F240F351F462D50E02417350714F40C
:100D9000621A01C0612C852D897049F406C0B70123
:100DA00080E290E00E941C0A6A946110F8CFDD2076
:100DB00029F0B7018D2D90E00E941C0A53FC09C058
:100DC00006C0B70180E390E00E941C0A6A9461109B
:100DD000F8CF57FE56C0680117FF02C0C12CD12CB6
:100DE00020E030E0A801441951095E874D872801B1
:100DF0004C185D08480C591C872D90E04427552756
:100E0000481B590B588B4F875FEFC516D50649F421
:100E1000B7018EE290E02A8B398B0E941C0A398937
:100E20002A890C151D0554F04D855E854C155D0510
:100E30002CF4F201E20FF31F818101C080E351E045
:100E4000C51AD1082F5F3F4F4F855889C416D50664
:100E50004CF0B70190E02A8B398B0E941C0A2A893A
:100E60003989D2CFC016D10649F49A81963328F435
:100E7000953321F45C8554FD01C081E3B70190E016
:100E80004AC08A81813319F04C854F7E4C87B70167
:100E900090E00E941C0A711005C054FE16C085E443
:100EA00090E015C0B7018EE290E00E941C0A42E07B
:100EB000D42EF401ED0DF11DD394B701808190E0A3
:100EC0000E941C0A7A94A9F7E8CF85E690E0B70162
:100ED0000E941C0A17FD06C00115110541F45C852E
:100EE00054FF05C01195019511098DE201C08BE2F7
:100EF000B70190E00E941C0A80E303C08F5F0A5094
:100F000011090A301105D4F7B70190E00E941C0ABC
:100F1000B701C801C0960E941C0A50C1833631F047
:100F2000833781F0833509F05EC024C0560182E02A
:100F3000A80EB11CF60180818983CC24C394D12CE6
:100F4000840114C05601F2E0AF0EB11CF60100811D
:100F5000118126FF03C0672D70E002C06FEF7FEFA5
:100F6000C8012A8B0E94110A6C012A899FE7592E19
:100F7000522217C05601F2E0AF0EB11CF6010081FB
:100F8000118126FF03C0672D70E002C06FEF7FEF75
:100F9000C8012A8B0E94FB096C012A8980E8582E1F
:100FA000522A53FC1CC006C0B70180E290E00E94A8
:100FB0001C0A6A94862D90E0C816D906A8F30FC0C3
:100FC000F80157FC859157FE81918F01B70190E0A0
:100FD0000E941C0A61106A94F1E0CF1AD108C11472
:100FE000D10471F7EBC0843611F0893651F5560102
:100FF00027FF09C044E0A40EB11CF6016081718195
:10100000828193810AC0F2E0AF0EB11CF6016081CB
:101010007181882777FD8095982F122F1F7697FF73
:1010200008C090958095709561957F4F8F4F9F4F29
:1010300010682AE030E0A4010E946A0AD82ED8186D
:1010400040C0122F853721F41F7E2AE030E01FC0F8
:10105000197F8F36A1F020F4883509F0B2C00BC09B
:10106000803721F0883709F0ACC001C0106114FF4F
:1010700009C0146007C024FF08C0166006C028E03D
:1010800030E005C020E130E002C020E132E056014E
:1010900017FF09C0F4E0AF0EB11CF6016081718149
:1010A0008281938108C0F2E0AF0EB11CF60160812D
:1010B000718180E090E0A4010E946A0AD82ED818BD
:1010C0001F7716FF0BC0212F2E7FD71450F414FF6B
:1010D0000AC012FD08C0212F2E7E05C00D2D212F24
:1010E00003C00D2D01C0072D24FF0CC0FE01ED0D26
:1010F000F11D8081803311F4297E08C022FF05C0D4
:101100000E5F04C0822F867809F00F5F23FD14C0A4
:1011100020FF0FC07D2C061560F4760C701A062D8A
:1011200008C0B70180E290E02A8B0E941C0A0F5F82
:101130002A890615B0F304C0061510F4601A01C020
:10114000612C24FF12C0B70180E390E02A8B0E943B
:101150001C0A2A8922FF1EC021FF03C088E590E0F7
:1011600002C088E790E0B7010CC0822F867891F02A
:1011700021FD02C080E201C08BE227FD8DE2B701B4
:1011800090E00E941C0A06C0B70180E390E00E9434
:101190001C0A7A94D714C0F3DA94F401ED0DF11D12
:1011A000B701808190E00E941C0AD110F5CF06C0E3
:1011B000B70180E290E00E941C0A6A946110F8CFA7
:1011C00099CCF7012681378102C02FEF3FEFC9018B
:1011D0006296E2E10C9408092F923F924F925F923F
:1011E0006F927F928F929F92AF92BF92CF92DF9237
:1011F000EF92FF920F931F93CF93DF93CDB7DEB79C
:10120000CA1BDB0B0FB6F894DEBF0FBECDBF09942F
:101210002A88398848885F846E847D848C849B8486
:10122000AA84B984C884DF80EE80FD800C811B8194
:10123000AA81B981CE0FD11D0FB6F894DEBF0FBEC3
:10124000CDBFED010895283008F027E03327DA01FB
:10125000990F311D87FD916000966105710539F484
:1012600032602E5F3D9330E32A95E1F708959F3F6A
:1012700030F080387105610509F03C5F3C5F3D93BB
:10128000913008F08068911DDF93CF931F930F93E7
:10129000FF92EF92192F987F9695E92F9695969544
:1012A000E90FFF27E653FF4F99273327EE24FF244A
:1012B000A701E70105900894079428F4360FE71E6C
:1012C000F81E491F511D660F771F881F991F06942E
:1012D000A1F70590079428F4E70EF81E491F561F42
:1012E000C11D770F881F991F661F0694A1F70590EF
:1012F000079428F4F80E491F561FC71FD11D880FE9
:10130000991F661F771F0694A1F70590079420F494
:10131000490F561FC71FD81F990F661F771F881FB9
:101320000694A9F784911095177041F0D695C7954A
:1013300057954795F794E7941A95C1F7E0E7F0E0E1
:1013400068941590159135916591959105907FE27E
:101350007395E118F10A430B560BC90BD009C0F77E
:10136000E10CF11E431F561FC91FD01D7EF47033C0
:1013700011F48A95E6CFE894015030F0080F0AF492
:101380000027021708F4202F2395022F7A3328F024
:1013900079E37D932A95E9F710C07D932A9589F624
:1013A000069497956795379517951794E118F10A64
:1013B000430B560BC90BD00998F023957E9173957A
:1013C0007A3308F070E37C932013B8F77E91706154
:1013D0007D9330F0839571E37D9370E32A95E1F777
:1013E0001124EF90FF900F911F91CF91DF919927DA
:1013F00087FD90950895FC010590615070400110A3
:10140000D8F7809590958E0F9F1F0895FB01DC0102
:101410000D900020E9F7119701900D920020E1F75F
:101420000895FC016150704001900110D8F780953B
:1014300090958E0F9F1F08950F931F93CF93DF9367
:101440008C01EB018B8181FD03C00FEF1FEF1AC0F0
:1014500082FF0DC02E813F818C819D812817390725
:1014600064F4E881F9810193F983E88306C0E88593
:10147000F985802F0995892B41F78E819F810196EF
:101480009F838E83C801DF91CF911F910F910895A3
:10149000AEE0B0E0EEE4FAE00C94FA080D891E89A3
:1014A00086E08C831A8309838FEF9FE79E838D8369
:1014B000CE014996AC016F89788DCE0101960E94CC
:1014C0006A05EF81F885E00FF11F10822E96E4E0A7
:1014D0000C941609FA01AA27283051F1203181F124
:1014E000E8946F936E7F6E5F7F4F8F4F9F4FAF4F2C
:1014F000B1E03ED0B4E03CD0670F781F891F9A1F3F
:10150000A11D680F791F8A1F911DA11D6A0F711DF2
:10151000811D911DA11D20D009F468943F912AE0FE
:10152000269F11243019305D3193DEF6CF010895E6
:10153000462F4770405D4193B3E00FD0C9F7F6CF17
:10154000462F4F70405D4A3318F0495D31FD4052DF
:10155000419302D0A9F7EACFB4E0A6959795879575
:1015600077956795BA95C9F7009761057105089554
:101570009B01AC010A2E0694579547953795279500
:10158000BA95C9F7620F731F841F951FA01D089598
:04159000F894FFCFFD
:101594000164000900E80357656C636F6D650053CF
:1015A4007769706520636172640074797065207076
:1015B400617373776F7264006361726420756E6B1C
:1015C4006E6F776E0077726F6E67207061737377DA
:1015D4006F72640074727920616761696E3A0063A6
:1015E40061726420626C6F636B656400636F6E7418
:1015F4006163742073657276696365006361726404
:101604002072656164206572726F7200737769700D
:101614006520616761696E006368617267696E67FE
:10162400206461746100787878787878787878784C
:10163400787800436F6E6E65637420436172007442
:101644006F20636F6E74696E7565004572726F7298
:10165400205374617465004461746120526561644F
:1016640079200A00554944203D2000255800436F45
:101674006D6D616E64206661696C6564200A005258
:10168400464944207265616465722074696D656FB2
:101694007574200A00436172642074657374200AAF
:1016A40000737461746549646C65200A0043617257
:1016B400642050726573656E74200A0073746174DB
:1016C4006543617264537769706564200A00676FCB
:1016D4007420554944200A00446964206E6F7420C4
:1016E40067657420554944200A0073746174655415
:1016F40079706550617373776F7264200A00737434
:10170400617465556E6B6E6F776E43617264200A07
:1017140000737461746557726F6E67506173737789
:101724006F7264200A007374617465436F6E6E6532
:101734006374436172200A00737461746543686161
:101744007267696E67200A0073746174654572720A
:0A1754006F725374617465200A007F
:00000001FF
