S01B000053746174654D616368696E65436F6E74726F6C2E7372656372
S11300000C94B5000C9415090C9428090C94D20096
S11300100C94D2000C94D2000C94D2000C94D20014
S11300200C94D2000C94D2000C94D2000C9463086B
S11300300C94D2000C94D2000C94D2000C94D200F4
S11300400C94D2000C94D2000C9436080C94D20078
S11300500C94D2000C94D2000C94D2000C94D200D4
S11300600C94D2000C94D2006E616E00696E66002E
S113007000407A10F35A00A0724E18090010A5D45B
S1130080E80000E87648170000E40B54020000CAB8
S11300909A3B000000E1F5050000809698000000FE
S11300A040420F000000A08601000000102700005D
S11300B00000E803000000006400000000000A00E3
S11300C0000000000100000000002C76D888DC67E6
S11300D04F0823DFC1DFAE59E1B1B796E5E3E4533E
S11300E0C63AE651997696E8E6C28426EB898C9B5B
S11300F062ED407C6FFCEFBC9C9F40F2BAA56FA5FB
S1130100F490055A2AF75C936B6CF9676DC11BFC7C
S1130110E0E40D47FEF520E6B500D0ED902E030097
S1130120943577050080841E080000204E0A0000E4
S113013000C80C333333330F986E12831141EF8DA3
S11301402114893BE65516CFFEE6DB18D1844B38E3
S11301501BF77C1D901DA4BBE424203284725E2214
S11301608100C9F124ECA1E53D2711241FBECFEF86
S1130170D8E0DEBFCDBF14E0A0E0B1E0ECE6F6E2EB
S113018002C005900D92A836B107D9F725E0A8E67C
S1130190B4E001C01D92A237B207E1F70E9437090B
S11301A00C9434130C9400003D98ECE7F0E080814B
S11301B085608083EEE7F0E0808180628083EAE7F7
S11301C0F0E08081876980830895EAE7F0E0808128
S11301D080648083808184FFFDCF209178003091FA
S11301E07900822F932F0895EF92FF920F931F931C
S11301F0CF93DF932A9885E50E9416082A9A81E016
S11302008093660510926C0580916B05811104C082
S1130210809168058823C1F31092660510926805E1
S113022080916B05882309F467C02A9885EF0E94A2
S113023016082A9A8FE891E00197F1F700C00000B0
S11302408EB5863809F04FC087E0EBE0F1E0AFE00F
S1130250B5E001900D928A95E1F707E010E00F2ECA
S1130260F2E1EF2EF1E0FF2EF02DCFECD4E02A984E
S113027085EF0E9416082A9A8FE891E00197F1F71A
S113028000C000008EB51F928F93FF92EF92DF9310
S1130290CF930E94B412BE018FE095E00E945512E4
S11302A0015011090F900F900F900F900F900F9025
S11302B0F1F6EFE0F5E001900020E9F731978AE0EC
S11302C090E09183808348E050E065E175E08FE43D
S11302D095E00E946E128FE495E00E94450B81E048
S11302E08093690506C085E191E00E94450B109258
S11302F0690510926B0508C086E291E00E94450BE7
S113030010926B0510926905DF91CF911F910F91A7
S1130310FF90EF900895DF92EF92FF920F931F9357
S1130320CF93DF931F92CDB7DEB7D82E1F928F9352
S11303302CE331E03F932F93EE24E394F12CEC0E65
S1130340FD1EFF92EF920E94B4122FE331E03F931F
S11303502F930FEC14E01F930F930E94B412F80133
S113036001900020E9F7319740E350E361E370E046
S11303704083518362837383B701C8010E9455127D
S11303800FB6F894DEBF0FBECDBF95E4D91609F4BD
S11303903FC09D1520F083E4D8123EC01AC09CE4EF
S11303A0D91651F086E5D81237C06FE475E08FECAA
S11303B094E00E94551230C06FE475E08FEC94E035
S11303C00E9455126AEC74E08FEC94E00E9455127E
S11303D023C06EEA74E08FEC94E00E9455126FE43F
S11303E075E08FEC94E00E94551260EC74E08FECA1
S11303F094E00E9455126DEB74E08FEC94E00E943F
S1130400551267EB74E08FEC94E00E94551204C01F
S113041082E491E00E94450BEFECF4E001900020AF
S1130420E9F731978AE290E0918380838FEC94E03E
S11304300E94450B0F90DF91CF911F910F91FF9078
S1130440EF90DF90089586E50E948B011092640579
S113045081E08093660580916405811104C08091D8
S113046068058823C1F3109266051092680580918F
S11304706405882341F180916F0490917004A091E8
S11304807104B09172048093C5049093C604A09340
S1130490C704B093C8041092C90480E4EAE6F4E007
S11304A0DF011D928A95E9F744E050E066E571E0CA
S11304B085EC94E00E946012282F392F81E0232BD1
S11304C039F080E008958BE591E00E94450B80E0CF
S11304D00895CF93DF93C0E0D0E081E00E94C40789
S11304E0882379F0833441F0FE01E653FB4F808387
S11304F00E949C05219605C081E08093630580E0FD
S11305005AC0C430D1054CF380E4EAE6F4E0DF01DC
S11305101D928A95E9F78CE40E948B011092640580
S113052081E08093660580916405811104C0809107
S113053068058823C1F310926605109268058091BE
S11305406405882399F180917F0490918004A0919F
S11305508104B09182048093C5049093C604A0934F
S1130560C704B093C8041092C90488E0EFE6F4E02D
S1130570AEEAB4E001900D928A95E1F71092B704C7
S113058080E4EAE6F4E0DF011D928A95E9F744E0AD
S113059050E066E571E085EC94E00E946012282F3B
S11305A0392F81E0232B39F080E005C08CE791E0FE
S11305B00E94450B80E0DF91CF91089583E40E946F
S11305C08B011092640581E0809366058091640537
S11305D0811104C0809168058823C1F310926605D7
S11305E01092680580916405882341F180916F041D
S11305F090917004A0917104B09172048093C50429
S11306009093C604A093C704B093C8041092C9047D
S113061080E4EAE6F4E0DF011D928A95E9F744E01C
S113062050E066E571E085EC94E00E946012282FAA
S1130630392F81E0232B39F080E0089585EA91E099
S11306400E94450B80E008958AEC91E00E94450BDE
S113065081E08093710580917105882399F08091E0
S11306607005882349F083EE91E00E94450B0E94B7
S1130670DE0281111092710510927005809171054E
S11306808111EDCF089581E08093650589EF91E0B4
S11306900E94450B0E94E5000B9720F480916705AA
S11306A08823C1F31092650580916705882341F082
S11306B08BE092E00E94450B1092670580E008955C
S11306C081E008952F923F924F925F926F927F92B2
S11306D08F929F92AF92BF92CF92DF92EF92FF924E
S11306E00F931F93CF93DF9381E080936A058093E8
S11306F06E0500E010E0412C512CE12CF12C612C12
S1130700712C812C912CA12CB12CC12CD12C64C125
S113071080916F05882309F42AC10E94E500EC0149
S11307200817190709F44AC0009709F44AC061E0A0
S113073070E08DE090E00E948905DF93CF9380E222
S113074092E09F938F930FE015E01F930F930E9405
S1130750B412C8010E94D305BE0180E090E00E945B
S1130760510C2AE939E94CEC53E40E94BD0BF62EF6
S1130770E72E582E492E662E772E882E992E61E06C
S113078070E083E090E00E9489054F925F92EF92BF
S1130790FF9284E292E09F938F931F930F930E94A2
S11307A0B412C8010E94D3058DB79EB70E960FB63A
S11307B0F8949EBF0FBE8DBF8E012DC0011511058B
S11307C051F5642D752D8E2D9F2D0E948E0C0E9447
S11307D0250C7093AB046093AA046091AA047091F1
S11307E0AB0480E090E00E94510C9B01AC01642DAD
S11307F0752D8E2D9F2D0E94540B20E030E048EC87
S113080052E40E94560D0E94250C7093AD0460932F
S1130810AC0410926E05262D372D482D592D6A2DC6
S11308207B2D8C2D9D2D0E94550BE62EF72ED82F57
S1130830C92FA62EB72EC82ED92E62E070E083E011
S113084090E00E94890520E03CE34CE156E46E2DE3
S11308507F2D8D2F9C2F0E94B90B8823BCF4CF933E
S1130860DF93FF92EF9289E292E09F938F938FE060
S113087095E09F938F930E94B4128DB79EB708960C
S11308800FB6F8949EBF0FBE8DBF16C0CF93DF93F3
S1130890FF92EF928EE292E09F938F938FE095E028
S11308A09F938F930E94B4128DB79EB708960FB68C
S11308B0F8949EBF0FBE8DBF8FE095E00E94D305D4
S11308C020E030E040E05FE36E2D7F2D8D2F9C2FE4
S11308D00E94560DC62FD72F382E292E462E572E5E
S11308E0E82EF92E62E070E08BE090E00E9489052A
S11308F020E030E046EC52E46C2F7D2F832D922DC6
S11309000E94B90B8823BCF42F923F92DF93CF93BC
S113091089E292E09F938F938FE095E09F938F936A
S11309200E94B4128DB79EB708960FB6F8949EBF76
S11309300FBE8DBF16C02F923F92DF93CF9383E3F8
S113094092E09F938F938FE095E09F938F930E9403
S1130950B4128DB79EB708960FB6F8949EBF0FBE1B
S11309608DBF8FE095E00E94D30510926F058091B2
S11309706D05882389F181E00E94C407833451F511
S1130980642D752D8E2D9F2D0E948E0C0E94250C9A
S11309907093AB046093AA046091AA047091AB04B1
S11309A080E090E00E94510C9B01AC01642D752DF8
S11309B08E2D9F2D0E94540B20E030E048EC52E431
S11309C00E94560D0E94250C7093AD046093AC04F4
S11309D010926E0510926D0580916E05811198CE6E
S11309E010926A058091AA049091AB049F938F930F
S11309F088E392E09F938F9380EC94E09F938F938E
S1130A000E94B4128091AC049091AD049F938F9393
S1130A108DE392E09F938F938DEB94E09F938F935C
S1130A200E94B41280916804909169049F938F93FB
S1130A3082E492E09F938F9387EB94E09F938F934C
S1130A400E94B4128DB79EB742960FB6F8949EBF1B
S1130A500FBE8DBFDF91CF911F910F91FF90EF904B
S1130A60DF90CF90BF90AF909F908F907F906F90CA
S1130A705F904F903F902F9008959CB590629CBDDD
S1130A80219A299A209A28983C9A44980E941608F8
S1130A908CB58F7D8CBD289A299887EC90E00197BE
S1130AA0F1F700C0000028988FE79CE00197F1F768
S1130AB000C0000008952FEF80E792E021508040AD
S1130AC09040E1F700C0000088E30E943D0587ECF8
S1130AD090E00197F1F700C000008FE00E943D050F
S1130AE08FEC97E00197F1F700C0000081E00E94CD
S1130AF03D058FE891E00197F1F700C0000086E022
S1130B000E943D058FE99FE00197F1F700C00000C6
S1130B1008956230710529F4982F905F9093000135
S1130B2002C08093000190E4699F800D11248154D8
S1130B3080680E943D050895CF93C82F90910001CD
S1130B40913139F462E070E081E090E00E9489051F
S1130B500BC0913249F461E070E081E090E00E94C2
S1130B60890581E0809300013C9A449A8CB58062A7
S1130B708CBD219A299A209A28988C2F0E941608B5
S1130B808CB58F7D8CBD289A299887EC90E00197CD
S1130B90F1F700C000002898809100018F5F8093D6
S1130BA00001CF910895CF93DF93EC0188818823CE
S1130BB031F021960E949C0589918111FBCFDF9130
S1130BC0CF91089581E00E943D05089588309105F4
S1130BD009F425C194F48430910509F46FC034F408
S1130BE0009711F1039709F049C135C0863091058A
S1130BF009F4DBC00CF006C1C1C08B30910509F4C7
S1130C007DC044F48930910509F416C10A9709F0AE
S1130C1035C13EC08D30910509F4DDC00CF48EC0A1
S1130C200E9709F02BC115C10E94E20561E070E046
S1130C3081E090E00E94890587E492E00E94D30558
S1130C4062E070E081E090E00E9489058FE492E028
S1130C500E94D30508950E94E20561E070E081E0FE
S1130C6090E00E9489058AE592E00E94D30562E043
S1130C7070E087E090E00E94890588E692E00E9497
S1130C80D30562E070E081E090E00E948905089558
S1130C900E94E20561E070E081E090E00E94890535
S1130CA083E792E00E94D3052FEF87EA91E6215073
S1130CB080409040E1F700C0000008950E94E205E2
S1130CC061E070E081E090E00E94890580E892E0B4
S1130CD00E94D30562E070E081E090E00E94890503
S1130CE08FE892E00E94D3052FEF87EA91E6215026
S1130CF080409040E1F700C0000008950E94E205A2
S1130D0061E070E081E090E00E94890589E992E069
S1130D100E94D30562E070E081E090E00E948905C2
S1130D2086EA92E00E94D3052FEF87EA91E62150EC
S1130D3080409040E1F700C0000008950E94E20561
S1130D4061E070E081E090E00E94890586EB92E02A
S1130D500E94D30562E070E081E090E00E94890582
S1130D6086EC92E00E94D3052FEF87EA91E62150AA
S1130D7080409040E1F700C0000008950E94E20521
S1130D8061E070E081E090E00E94890582ED92E0EC
S1130D900E94D30562E070E081E090E00E94890542
S1130DA08FED92E00E94D30508950E94E20561E070
S1130DB070E081E090E00E94890580EF92E00E945B
S1130DC0D3052FEF87EA91E6215080409040E1F768
S1130DD000C0000008950E94E20561E070E081E037
S1130DE090E00E94890581E093E00E94D30562E0CF
S1130DF070E081E090E00E9489058DE093E00E941C
S1130E00D30508950E94E20561E070E081E090E07E
S1130E100E94890589E193E00E94D30508950E9408
S1130E20E20561E070E081E090E00E94890588E2DB
S1130E3093E00E94D30508950E94E20561E070E00A
S1130E4081E090E00E94890587E393E00E94D30546
S1130E5008950E94E20561E070E081E090E00E9464
S1130E60890587E493E00E94D3052FEF87EA91E692
S1130E70215080409040E1F700C0000008958E3C6E
S1130E8009F463C008F58D3709F443C070F48F305A
S1130E9009F457C020F4882309F44FC05AC0873797
S1130EA071F18B3709F055C02EC08B3B71F130F4D2
S1130EB08E37B9F1873B09F04CC04DC08D3B59F1D9
S1130EC08E3B09F046C02BC0873EA9F158F48B3DF8
S1130ED0F1F018F4873DE9F514C08D3DF1F08E3D35
S1130EE0C1F521C08E3E09F128F48B3E11F18D3EEF
S1130EF081F51DC0803F39F18F3F59F520C081E352
S1130F00089583E3089584E3089585E3089586E3CB
S1130F10089587E3089588E3089589E3089580E3B5
S1130F20089581E4089582E4089583E4089584E4AF
S1130F30089585E4089586E408958CE4089588E48A
S1130F40089581E5089580E508950E94E20580E012
S1130F50089588E5089582E3089590915B058913C7
S1130F600DC080915C05853021F410925C0581E010
S1130F7008958F5F80935C0580E0089580935B05FE
S1130F8010925C0580E008951F93CF93DF93182F90
S1130F9097B19F6097B988B118B88AB11AB89BB154
S1130FA0906F9BB987EC90E00197F1F700C00000C7
S1130FB0C9B1C07F87B117B898B19F6098B99AB189
S1130FC0906F9AB98BB11BB887EC90E00197F1F759
S1130FD000C0000096B19F70C92BCF3FA9F08C2FA1
S1130FE00E943F07D82F80935D0580915E05D81736
S1130FF079F08C2F0E94AD07882361F0D0935E05B1
S1131000112349F0CD2F07C010925E05C0E003C044
S1131010C0E001C0C0E08C2FDF91CF911F910895F3
S113102084B18C6284B982E58CBD08958EBD0DB403
S113103007FEFDCF0895E9E6F0E080818F608083AC
S11310408DB383608DBB8AB1837F8AB9229A2A9A31
S1131050089589E0809381008FE79EE3909389004F
S11310608093880082E080936F0008951F920F920E
S11310700FB60F9211242F938F939F93EF93FF93A7
S113108080915F05909160052091C600FC01E659AE
S1131090FB4F20832A3241F41092600510925F05C1
S11310A081E08093640505C0019690936005809368
S11310B05F05FF91EF919F918F912F910F900FBE3C
S11310C00F901F9018951F920F920FB60F92112434
S11310D08F939F9380916E058823F1F0809109018D
S11310E090910A01019790930A0180930901892B39
S11310F0C9F48091680490916904019690936904FD
S11311008093680488EE93E090930A018093090128
S113111081E080936F0506C088EE93E090930A0106
S11311208093090180916A058823A9F080910701C1
S11311309091080101979093080180930701892BEE
S113114081F489E090E0909308018093070181E0A5
S113115080936D0506C089E090E090930801809328
S11311600701809166058823A9F08091050190917B
S1131170060101979093060180930501892B81F460
S113118080E197E2909306018093050181E08093CA
S1131190680506C080E197E29093060180930501FB
S11311A0809165058823A9F0809103019091040141
S11311B001979093040180930301892B81F480E1CA
S11311C097E2909304018093030181E08093670583
S11311D006C080E197E2909304018093030180911B
S11311E071058823A9F08091010190910201019772
S11311F09093020180930101892B81F480E69AEE99
S1131200909302018093010181E08093700506C0F0
S113121080E69AEE90930201809301019F918F9151
S11312200F900FBE0F901F9018951F920F920FB63C
S11312300F9211248F9380916B05811103C081E07B
S113124080936C058F910F900FBE0F901F9018958F
S11312501F920F920FB60F9211248F9381E0809307
S11312606B058F910F900FBE0F901F9018950E94E1
S113127010080E94300B0E941B080E9429080E943B
S11312805B050E94D400789483E593E00E94450BAB
S113129023E630E0C8E0D0E00F2EFEE0CF2ED12CC4
S11312A0F02D0F2EF5E08F2E912CF02D0F2EF9E05E
S11312B06F2E712CF02D6894222422F8312C0F2EDD
S11312C0F6E0EF2EF12CF02D0F2EF7E04F2E512CDF
S11312D0F02D03E010E00F2EFCE0AF2EB12CF02D2A
S11312E001C09C018091610590916205821793076A
S11312F041F420916C052223A1F3009791F19C0104
S1131300F1CF8730910509F44BC194F483309105F2
S113131009F48DC034F4009721F1029709F09BC1C0
S113132044C08530910509F406C10CF019C1D0C040
S11313308A30910509F4B9C044F48830910509F460
S113134046C1099709F087C162C18D30910509F43E
S1131350D2C08E30910509F46FC10C9709F07BC19E
S113136053C08FE593E00E94450B809161059091F5
S113137062050E94E60580916C05882389F08BE65E
S113138093E00E94450B0E94F40020916105309186
S1131390620582E090E09093620580936105A2CF9C
S11313A020916105309162059DCF8AE793E00E9408
S11313B0450B809169058823F1F08CE893E00E9445
S11313C0450B0E942302882349F020916105309146
S11313D0620510936205009361050AC020916105BE
S11313E0309162058AE090E09093620580936105F4
S11313F01092690577CF2091610530916205B09212
S11314006205A09261056ECF86E993E00E94450BC8
S113141080916105909162050E94E6052091610525
S11314203091620510926205109261055BCF88EAE3
S113143093E00E94450B80916105909162050E94A2
S1131440E6050E9469028823C1F00E94E500059721
S113145058F420916105309162058DE090E09093FD
S11314606205809361053ECF20916105309162054C
S1131470909262058092610535CF8091630588233F
S113148059F0109263052091610530916205109224
S113149062051092610526CF2091610530916205A5
S11314A030926205209261051DCF8CEB93E00E947F
S11314B0450B80916105909162050E94E60520919B
S11314C061053091620510926205109261050ACFA0
S11314D08FEC93E00E94450B809161059091620529
S11314E00E94E60520916105309162051093620522
S11314F000936105F7CE84EE93E00E94450B809142
S11315006105909162050E94E6050E9443038823C9
S113151049F02091610530916205909262058092B4
S11315206105E0CE2091610530916205109262055B
S113153010926105D7CE86EF93E00E94450B80910F
S11315406105909162050E94E6050E946203209164
S1131550610530916205F0926205E0926105C2CEA8
S113156086E094E00E94450B8091610590916205AC
S11315700E94E6050E94E500069748F02091610567
S1131580309162055092620540926105ABCE209184
S1131590610530916205D0936205C0936105A2CEC6
S11315A08DE194E00E94450B809161059091620564
S11315B00E94E6050E94E5000697E0F72091610588
S11315C030916205D0936205C09361058BCE82E3AE
S11315D094E00E94450B80916105909162050E9400
S11315E0E6050E94DE02882349F0209161053091CE
S11315F06205109262051092610574CE2091610516
S11316003091620570926205609261056BCE84E44C
S113161094E00E94450B80916105909162050E94BF
S1131620E6050E9424032091610530916205109221
S113163062051092610556CE85E594E00E94450B43
S113164080916105909162050E94E60520916105F3
S11316503091620547CED0926205C092610542CEB8
S113166088E98093C10086E08093C20082E0809381
S1131670C00087E68093C4000895E0ECF0E0908118
S113168095FFFDCF8093C6000895CF93DF93EC01BF
S11316908881882331F021960E943D0B8991811124
S11316A0FBCFDF91CF9108955058BB27AA270ED0C6
S11316B0ACC19DD130F0A2D120F031F49F3F11F4A0
S11316C01EF492C10EF4E095E7FB5FC1E92FAED1A1
S11316D080F3BA17620773078407950718F071F44B
S11316E09EF5DDC10EF4E0950B2EBA2FA02D0B0153
S11316F0B90190010C01CA01A0011124FF27591B53
S113170099F0593F50F4503E68F11A16F040A22F58
S1131710232F342F4427585FF3CF469537952795C9
S1131720A795F0405395C9F77EF41F16BA0B620BC8
S1131730730B840BBAF09150A1F0FF0FBB1F661F0F
S1131740771F881FC2F70EC0BA0F621F731F841F52
S113175048F4879577956795B795F7959E3F08F078
S1131760B3CF9395880F08F09927EE0F9795879537
S11317700895E7D008F481E008950CD046C13ED125
S113178040F035D130F021F45F3F19F0FEC0511123
S113179087C12AC14BD198F39923C9F35523B1F3D7
S11317A0951B550BBB27AA2762177307840738F0CC
S11317B09F5F5F4F220F331F441FAA1FA9F333D02B
S11317C00E2E3AF0E0E830D091505040E695001CDF
S11317D0CAF729D0FE2F27D0660F771F881FBB1F9B
S11317E0261737074807AB07B0E809F0BB0B802D75
S11317F0BF01FF2793585F4F2AF09E3F510568F0C1
S1131800C4C04EC15F3FECF3983EDCF386957795F8
S11318106795B795F7959F5FC9F7880F911D9695C2
S1131820879597F90895E1E0660F771F881FBB1F1E
S1131830621773078407BA0720F0621B730B840BCB
S1131840BA0BEE1F88F7E0950895F8D088F09F57FB
S113185090F0B92F9927B751A0F0D1F0660F771FF8
S1131860881F991F1AF0BA95C9F712C0B13081F0D8
S113187016D1B1E0089513C1672F782F8827B85F78
S113188039F0B93FCCF3869577956795B395D9F739
S11318903EF490958095709561957F4F8F4F9F4F43
S11318A00895E89409C097FB3EF49095809570954F
S11318B061957F4F8F4F9F4F9923A9F0F92F96E998
S11318C0BB279395F695879577956795B795F1110D
S11318D0F8CFFAF4BB0F11F460FF1BC06F5F7F4FAA
S11318E08F4F9F4F16C0882311F096E911C07723BC
S11318F021F09EE8872F762F05C0662371F096E8C5
S1131900862F70E060E02AF09A95660F771F881F93
S1131910DAF7880F9695879597F90895A9D080F0FE
S11319209F3740F491110EF0BBC060E070E080E896
S11319309FEB089526F41B16611D711D811D2BC09C
S113194045C0990F0008550FAA0BE0E8FEEF1616E4
S11319501706E807F907C0F012161306E407F5079F
S113196098F0621B730B840B950B39F40A2661F013
S1131970232B242B252B21F408950A2609F4A140B6
S1131980A6958FEF811D811D089597F99F6780E8C3
S113199070E060E00895882371F4772321F0985073
S11319A0872B762F07C0662311F499270DC0905119
S11319B0862B70E060E02AF09A95660F771F881FE7
S11319C0DAF7880F9695879597F908959F3F31F038
S11319D0915020F4879577956795B795880F911D59
S11319E09695879597F908959FEF80EC08950024C4
S11319F00A941616170618060906089500240A9470
S1131A0012161306140605060895092E0394000CF5
S1131A1011F4882352F0BB0F40F4BF2B11F460FF84
S1131A2004C06F5F7F4F8F4F9F4F089557FD9058AD
S1131A30440F551F59F05F3F71F04795880F97FB8E
S1131A40991F61F09F3F79F0879508951216130648
S1131A501406551FF2CF4695F1DF08C01616170677
S1131A601806991FF1CF86957105610508940895AC
S1131A70E5DFA0F0BEE7B91788F4BB279F3860F410
S1131A801616B11D672F782F8827985FF7CF869594
S1131A9077956795B11D93959639C8F30895E894A1
S1131AA0BB2766277727CB0197F908950BD0ADCFD5
S1131AB09EDF28F0A3DF18F0952309F066CF94CFBA
S1131AC01124EECFB3DFA0F3959FD1F3950F50E02F
S1131AD0551F629FF001729FBB27F00DB11D639FDC
S1131AE0AA27F00DB11DAA1F649F6627B00DA11D82
S1131AF0661F829F2227B00DA11D621F739FB00D28
S1131B00A11D621F839FA00D611D221F749F332797
S1131B10A00D611D231F849F600D211D822F762F30
S1131B206A2F11249F5750408AF0E1F088234AF02D
S1131B30EE0FFF1FBB1F661F771F881F9150504079
S1131B40A9F79E3F510570F020CFAACF5F3FECF379
S1131B50983EDCF3869577956795B795F795E79565
S1131B609F5FC1F7FE2B880F911D9695879597F976
S1131B700895A2E1B0E0EFEBFDE00C943B117C0191
S1131B801B016A01FC0117821682838181FD03C057
S1131B906BC3650105C088248394912C8C0E9D1E13
S1131BA0F7019381F10193FD859193FF81911F01C9
S1131BB0882309F455C3853239F493FD859193FF45
S1131BC081911F01853231F4B70190E00E9488129F
S1131BD05601DFCF712C612C20E02032A8F48B3227
S1131BE061F028F4803251F0833271F40BC08D32ED
S1131BF039F0803349F4216028C02260246025C074
S1131C00286023C0206121C027FD27C0382F30530E
S1131C103A3078F426FF06C0FAE07F9E300D112496
S1131C20732E13C04AE0649E300D1124632E20628B
S1131C300CC08E3221F426FD13C3206406C08C36FA
S1131C4011F4206802C0883641F4F10193FD8591B6
S1131C5093FF81911F018111C0CF982F9554933028
S1131C6018F42061805E06C0982F9556933008F0D2
S1131C70A4C12F7E26FD02C016E0712EBFE35B2EA9
S1131C805222853619F4F0E45F2A07C0863619F427
S1131C9040E8542A02C071107A9457FE07C05BE3EF
S1131CA0571548F0472C439427E00DC087E087156B
S1131CB030F0272D07C027E0ACE34A2E04C027E00C
S1131CC0F7E07F2E412C560194E0A90EB11CF601D9
S1131CD06081718182819381042DA4010E9472111B
S1131CE08C0149814C8740FF02C043FF07C051FC6F
S1131CF008C052FE09C0E0E2DE2E07C07DE2D72E06
S1131D0004C06BE2D62E01C0D12C8C858C70A1F15D
S1131D10DD2011F084E001C083E0861510F0612C11
S1131D200BC0681A53FC08C0B70180E290E00E941F
S1131D3088126A94C9F7F3CFDD2029F0B7018D2DFD
S1131D4090E00E9488125C8553FD03C00CE610E00D
S1131D500CC008E610E009C051108052B70190E0B1
S1131D600E9488120F5F1F4F02C080E15822F801C1
S1131D7084918111F1CF71C257FE0EC0400E4C8583
S1131D8044FF04C08A81813309F44A9414144CF545
S1131D9058E0541548F12CC056FC2AC0872D90E019
S1131DA08017910744F00C3F8FEF180724F090E858
S1131DB0592A01C07A94772049F0E2E0F0E0EC0F70
S1131DC0FD1FE70DF11D80818033A1F357FE10C084
S1131DD0472C4394872D90E00817190744F4701A90
S1131DE007C04424439404C058E0452E01C0712C1C
S1131DF057FE07C0101611063CF498012F5F3F4FA1
S1131E0005C025E030E002C021E030E0DD2011F023
S1131E102F5F3F4F772031F0472D50E04F5F5F4FEA
S1131E20240F351F462D50E02417350714F4621A89
S1131E3001C0612C852D897049F406C0B70180E288
S1131E4090E00E9488126A946110F8CFDD2029F096
S1131E50B7018D2D90E00E94881253FC09C006C082
S1131E60B70180E390E00E9488126A946110F8CF71
S1131E7057FE56C0680117FF02C0C12CD12C20E0C8
S1131E8030E0A801441951095E874D8728014C1898
S1131E905D08480C591C872D90E044275527481BA2
S1131EA0590B588B4F875FEFC516D50649F4B70118
S1131EB08EE290E02A8B398B0E94881239892A8914
S1131EC00C151D0554F04D855E854C155D052CF4EF
S1131ED0F201E20FF31F818101C080E351E0C51AD2
S1131EE0D1082F5F3F4F4F855889C416D5064CF053
S1131EF0B70190E02A8B398B0E9488122A8939898C
S1131F00D2CFC016D10649F49A81963328F495337A
S1131F1021F45C8554FD01C081E3B70190E04AC01F
S1131F208A81813319F04C854F7E4C87B70190E04C
S1131F300E948812711005C054FE16C085E490E01A
S1131F4015C0B7018EE290E00E94881242E0D42EC0
S1131F50F401ED0DF11DD394B701808190E00E944E
S1131F6088127A94A9F7E8CF85E690E0B7010E9439
S1131F70881217FD06C00115110541F45C8554FF54
S1131F8005C01195019511098DE201C08BE2B701DD
S1131F9090E00E94881280E303C08F5F0A50110909
S1131FA00A301105D4F7B70190E00E948812B701F6
S1131FB0C801C0960E94881250C1833631F083371D
S1131FC081F0833509F05EC024C0560182E0A80E7A
S1131FD0B11CF60180818983CC24C394D12C840163
S1131FE014C05601F2E0AF0EB11CF601008111815C
S1131FF026FF03C0672D70E002C06FEF7FEFC801BA
S11320002A8B0E947D126C012A899FE7592E522245
S113201017C05601F2E0AF0EB11CF6010081118128
S113202026FF03C0672D70E002C06FEF7FEFC80189
S11320302A8B0E944A126C012A8980E8582E522A5F
S113204053FC1CC006C0B70180E290E00E948812D5
S11320506A94862D90E0C816D906A8F30FC0F8013B
S113206057FC859157FE81918F01B70190E00E9442
S1132070881261106A94F1E0CF1AD108C114D10416
S113208071F7EBC0843611F0893651F5560127FFFC
S113209009C044E0A40EB11CF60160817181828103
S11320A093810AC0F2E0AF0EB11CF6016081718128
S11320B0882777FD8095982F122F1F7697FF08C0E9
S11320C090958095709561957F4F8F4F9F4F1068C5
S11320D02AE030E0A4010E94D612D82ED81840C0BD
S11320E0122F853721F41F7E2AE030E01FC0197FAC
S11320F08F36A1F020F4883509F0B2C00BC08037C8
S113210021F0883709F0ACC001C0106114FF09C088
S1132110146007C024FF08C0166006C028E030E041
S113212005C020E130E002C020E132E0560117FF93
S113213009C0F4E0AF0EB11CF601608171818281A7
S1132140938108C0F2E0AF0EB11CF6016081718189
S113215080E090E0A4010E94D612D82ED8181F77F0
S113216016FF0BC0212F2E7FD71450F414FF0AC082
S113217012FD08C0212F2E7E05C00D2D212F03C076
S11321800D2D01C0072D24FF0CC0FE01ED0DF11D26
S11321908081803311F4297E08C022FF05C00E5FC0
S11321A004C0822F867809F00F5F23FD14C020FF3E
S11321B00FC07D2C061560F4760C701A062D08C02D
S11321C0B70180E290E02A8B0E9488120F5F2A896F
S11321D00615B0F304C0061510F4601A01C0612C92
S11321E024FF12C0B70180E390E02A8B0E9488127A
S11321F02A8922FF1EC021FF03C088E590E002C0A7
S113220088E790E0B7010CC0822F867891F021FD19
S113221002C080E201C08BE227FD8DE2B70190E0AD
S11322200E94881206C0B70180E390E00E948812E1
S11322307A94D714C0F3DA94F401ED0DF11DB701CB
S1132240808190E00E948812D110F5CF06C0B701BA
S113225080E290E00E9488126A946110F8CF99CCD1
S1132260F7012681378102C02FEF3FEFC901629643
S1132270E2E10C9457112F923F924F925F926F922A
S11322807F928F929F92AF92BF92CF92DF92EF9202
S1132290FF920F931F93CF93DF93CDB7DEB7CA1B83
S11322A0DB0B0FB6F894DEBF0FBECDBF09942A88AE
S11322B0398848885F846E847D848C849B84AA8456
S11322C0B984C884DF80EE80FD800C811B81AA81E3
S11322D0B981CE0FD11D0FB6F894DEBF0FBECDBFAE
S11322E0ED010895283008F027E03327DA01990F2B
S11322F0311D87FD916000966105710539F43260E6
S11323002E5F3D9330E32A95E1F708959F3F30F027
S113231080387105610509F03C5F3C5F3D93913065
S113232008F08068911DDF93CF931F930F93FF9262
S1132330EF92192F987F9695E92F96959695E90F28
S1132340FF27E653FF4F99273327EE24FF24A701E5
S1132350E70105900894079428F4360FE71EF81E49
S1132360491F511D660F771F881F991F0694A1F7F7
S11323700590079428F4E70EF81E491F561FC11D47
S1132380770F881F991F661F0694A1F7059007947D
S113239028F4F80E491F561FC71FD11D880F991F17
S11323A0661F771F0694A1F70590079420F4490F40
S11323B0561FC71FD81F990F661F771F881F0694C3
S11323C0A9F784911095177041F0D695C795579544
S11323D04795F794E7941A95C1F7E0E7F0E068941D
S11323E01590159135916591959105907FE27395BE
S11323F0E118F10A430B560BC90BD009C0F7E10CE5
S1132400F11E431F561FC91FD01D7EF4703311F4F3
S11324108A95E6CFE894015030F0080F0AF40027BB
S1132420021708F4202F2395022F7A3328F079E33A
S11324307D932A95E9F710C07D932A9589F6069431
S113244097956795379517951794E118F10A430BFB
S1132450560BC90BD00998F023957E9173957A3366
S113246008F070E37C932013B8F77E9170617D933C
S113247030F0839571E37D9370E32A95E1F711249D
S1132480EF90FF900F911F91CF91DF91992787FDD6
S113249090950895FC010590615070400110D8F7A3
S11324A0809590958E0F9F1F0895FB01DC010D9080
S11324B00020E9F7119701900D920020E1F70895AB
S11324C0FB01DC014150504030F08D9101908019A6
S11324D019F40020B9F7881B990B0895FB01DC015E
S11324E04150504048F001900D920020C9F701C0BE
S11324F01D9241505040E0F70895FC016150704036
S113250001900110D8F7809590958E0F9F1F089524
S11325100F931F93CF93DF938C01EB018B8181FD8C
S113252003C00FEF1FEF1AC082FF0DC02E813F8141
S11325308C819D812817390764F4E881F98101931E
S1132540F983E88306C0E885F985802F0995892BEE
S113255041F78E819F8101969F838E83C801DF910D
S1132560CF911F910F910895AEE0B0E0EAEBF2E154
S11325700C9449110D891E8986E08C831A83098382
S11325808FEF9FE79E838D83CE014996AC016F89BF
S1132590788DCE0101960E94B90DEF81F885E00F88
S11325A0F11F10822E96E4E00C946511FA01AA271B
S11325B0283051F1203181F1E8946F936E7F6E5F82
S11325C07F4F8F4F9F4FAF4FB1E03ED0B4E03CD030
S11325D0670F781F891F9A1FA11D680F791F8A1F13
S11325E0911DA11D6A0F711D811D911DA11D20D07A
S11325F009F468943F912AE0269F11243019305D34
S11326003193DEF6CF010895462F4770405D419324
S1132610B3E00FD0C9F7F6CF462F4F70405D4A3371
S113262018F0495D31FD4052419302D0A9F7EACF39
S1132630B4E0A6959795879577956795BA95C9F768
S113264000976105710508959B01AC010A2E06945B
S11326505795479537952795BA95C9F7620F731F14
S10F2660841F951FA01D0895F894FFCF5F
S113266C0160EA102710270900E803554944203D6E
S113267C2000255800436F6D6D616E64206661699E
S113268C6C6564200A005246494420726561646595
S113269C722074696D656F7574200A0025630025BA
S11326AC25004572726F7220436F6D6D616E6420EC
S11326BC5374617465007472756500436172646B64
S11326CC6E6F776E20636F6D6D756E69636174697F
S11326DC6F6E2074696D656F75740A0056616C6950
S11326EC646174652070617373776F726420636FB7
S11326FC6D6D756E69636174696F6E2074696D6557
S113270C6F75740A0055706C6F6164204368617254
S113271C676520436F6D6D756E69636174696F6E67
S113272C2074696D656F75740A0054727920636F37
S113273C6E6E656374696F6E2066756E6374696F13
S113274C6E0A0074727920636F6E6E65637420690F
S113275C6E74657276616C0A007761697420666FB9
S113276C722074696D656F75740A00636F6E6E65A3
S113277C6374206361722074696D656F75740A00EB
S113278C25347500252E326600252E31660025353C
S113279C2E660025342E6600253034750025303223
S11327AC7500253035750057656C636F6D65005386
S11327BC77697065204361726400547970652050A8
S11327CC617373776F72640043203D2063616E63A1
S11327DC656C006361726420756E6B6E6F776E004E
S11327EC77726F6E672070617373776F72640074A5
S11327FC727920616761696E006361726420626C36
S113280C6F636B656400636F6E74616374207365CE
S113281C7276696365006361726420726561642019
S113282C6572726F72007377697065206167616994
S113283C6E00503A20202020206D5720413A00454C
S113284C3A20202020206D5753202020206B72002A
S113285C4368617267696E672073746F7070656426
S113286C00436F6E6E6563742043617200746F2055
S113287C636F6E74696E756500446973636F6E6E15
S113288C656374204361720055706C6F6164696E8A
S113289C6720646174610043686172676572204FDC
S11328AC66666C696E65004572726F722053746152
S11328BC746500436172642074657374200A007338
S11328CC7461746549646C65200A00436172642008
S11328DC50726573656E74200A0073746174654379
S11328EC617264537769706564200A00676F7420A1
S11328FC554944200A00446964206E6F742067654E
S113290C7420554944200A007374617465547970B9
S113291C6550617373776F7264200A007374617409
S113292C65556E6B6E6F776E43617264200A00732B
S113293C7461746557726F6E6750617373776F72DD
S113294C64200A007374617465436F6E6E656374FE
S113295C436172200A007374617465436861726721
S113296C696E67200A0073746174654368617267E9
S113297C696E6753746F70706564200A00737461B8
S113298C7465446973636F6E6E656374436172201E
S113299C0A00737461746555706C6F6164546F4490
S11329AC42200A00737461746544426F66666C69F4
S11329BC6E65200A0073746174654572726F72538C
S10B29CC74617465200A000027
S9030000FC
