S01B000053746174654D616368696E65436F6E74726F6C2E7372656372
S11300000C94B5000C946B090C947E090C94D200EA
S11300100C94D2000C94D2000C94D2000C94D20014
S11300200C94D2000C94D2000C94D2000C94B90815
S11300300C94D2000C94D2000C94D2000C94D200F4
S11300400C94D2000C94D2000C948C080C94D20022
S11300500C94D2000C94D2000C94D2000C94D200D4
S11300600C94D2000C94D2006E616E00696E66002E
S113007000407A10F35A00A0724E18090010A5D45B
S1130080E80000E87648170000E40B54020000CAB8
S11300909A3B000000E1F5050000809698000000FE
S11300A040420F000000A08601000000102700005D
S11300B00000E803000000006400000000000A00E3
S11300C0000000000100000000002C76D888DC67E6
S11300D04F0823DFC1DFAE59E1B1B796E5E3E4533E
S11300E0C63AE651997696E8E6C28426EB898C9B5B
S11300F062ED407C6FFCEFBC9C9F40F2BAA56FA5FB
S1130100F490055A2AF75C936B6CF9676DC11BFC7C
S1130110E0E40D47FEF520E6B500D0ED902E030097
S1130120943577050080841E080000204E0A0000E4
S113013000C80C333333330F986E12831141EF8DA3
S11301402114893BE65516CFFEE6DB18D1844B38E3
S11301501BF77C1D901DA4BBE424203284725E2214
S11301608100C9F124ECA1E53D2711241FBECFEF86
S1130170D8E0DEBFCDBF15E0A0E0B1E0E8E1F7E2F2
S113018002C005900D92AC34B107D9F726E0ACE477
S1130190B5E001C01D92A635B207E1F70E948D09B2
S11301A00C948A130C9400003D98ECE7F0E08081F5
S11301B085608083EEE7F0E0808180628083EAE7F7
S11301C0F0E08081876980830895EAE7F0E0808128
S11301D080648083808184FFFDCF209178003091FA
S11301E07900822F932F0895EF92FF920F931F931C
S11301F0CF93DF932A9885E50E946C082A9A81E0C0
S113020080934A061092500680914F06811104C0D3
S113021080914C068823C1F310924A0610924C0632
S113022080914F06882309F46FC08BE091E00E940F
S11302309B0B2A9885EF0E946C082A9A8FE891E01C
S11302400197F1F700C000008EB5863809F053C05D
S113025087E0E8E1F1E0A3EFB5E001900D928A9523
S1130260E1F707E010E00F2EFFE1EF2EF1E0FF2EA3
S1130270F02DC3EBD5E02A9885EF0E946C082A9AEA
S11302808FE891E00197F1F700C000008EB51F924E
S11302908F93FF92EF92DF93CF930E940A13BE01D4
S11302A083EF95E00E94AB12015011090F900F905B
S11302B00F900F900F900F90F1F6E3EFF5E001909F
S11302C00020E9F731978AE090E09183808383EFFF
S11302D095E00E949B0B48E050E069EF75E083E3F2
S11302E096E00E94C41283E396E00E949B0B81E097
S11302F080934D0606C082E291E00E949B0B10920F
S11303004D0610924F0608C083E391E00E949B0BB8
S113031010924F0610924D06DF91CF911F910F91CD
S1130320FF90EF900895DF92EF92FF920F931F9347
S1130330CF93DF931F92CDB7DEB7D82E1F928F9342
S113034029E431E03F932F93EE24E394F12CEC0E57
S1130350FD1EFF92EF920E940A132CE431E03F93BA
S11303602F9303EB15E01F930F930E940A13F801D8
S113037001900020E9F7319740E350E361E370E036
S11303804083518362837383B701C8010E94AB1217
S11303900FB6F894DEBF0FBECDBF95E4D91609F4AD
S11303A03FC09D1520F083E4D8123EC01AC09CE4DF
S11303B0D91651F086E5D81237C063E376E083EBB3
S11303C095E00E94AB1230C063E376E083EB95E0E6
S11303D00E94AB126EEA75E083EB95E00E94AB12CB
S11303E023C062E975E083EB95E00E94AB1263E3FE
S11303F076E083EB95E00E94AB1264EA75E083EB50
S113040095E00E94AB1261EA75E083EB95E00E94EF
S1130410AB126BE975E083EB95E00E94AB1204C06C
S11304208FE491E00E949B0BE3EBF5E00190002048
S1130430E9F731978AE290E09183808383E691E043
S11304400E949B0B83EB95E00E949B0B0F90DF9126
S1130450CF911F910F91FF90EF90DF90089586E563
S11304600E9493011092480681E080934A0680918D
S11304704806811104C080914C068823C1F3109270
S11304804A0610924C06809148068823C1F180E701
S113049091E00E949B0B8EE495E00E949B0B80915F
S11304A0530590915405A0915505B091560580933C
S11304B0A9059093AA05A093AB05B093AC0510923F
S11304C0AD0587E891E00E949B0B89EA95E00E94C4
S11304D09B0B80E4EEE4F5E0DF011D928A95E9F7D9
S11304E044E050E069EA71E089EA95E00E94B612BE
S11304F0282F392F81E0232B39F080E008958EEAEC
S113050091E00E949B0B80E00895CF93DF93C0E0BD
S1130510D0E081E00E941A08882379F0833441F006
S1130520FE01E255FA4F80830E94F205219605C030
S113053081E08093470680E06CC0C430D1054CF361
S11305408FEC91E00E949B0B8EEA95E00E949B0B3E
S11305508CE40E9493011092480681E080934A063D
S113056080914806811104C080914C068823C1F310
S113057010924A0610924C0680914806882309F48A
S113058043C080E791E00E949B0B8EE495E00E94BB
S11305909B0B8091630590916405A0916505B091D2
S11305A066058093A9059093AA05A093AB05B09323
S11305B0AC051092AD0588E0E3E5F5E0A2E9B5E00D
S11305C001900D928A95E1F710929B058FED91E0D1
S11305D00E949B0B89EA95E00E949B0B80E4EEE469
S11305E0F5E0DF011D928A95E9F744E050E069EAFD
S11305F071E089EA95E00E94B612282F392F81E034
S1130600232B39F080E005C087EF91E00E949B0B1B
S113061080E0DF91CF91089583E40E9493011092CA
S1130620480681E080934A0680914806811104C0FF
S113063080914C068823C1F310924A0610924C060E
S1130640809148068823C1F180E292E00E949B0BCE
S11306508EE495E00E949B0B809153059091540584
S1130660A0915505B09156058093A9059093AA05CC
S1130670A093AB05B093AC051092AD058DE492E068
S11306800E949B0B89EA95E00E949B0B80E4EEE4B8
S1130690F5E0DF011D928A95E9F744E050E069EA4C
S11306A071E089EA95E00E94B612282F392F81E083
S11306B0232B39F080E008958DE692E00E949B0B95
S11306C080E0089582E992E00E949B0B81E0809390
S11306D0550680915506882399F080915406882305
S11306E049F08BEA92E00E949B0B0E940C0381115B
S11306F01092550610925406809155068111EDCF43
S1130700089581E08093490681EC92E00E949B0B5E
S11307100E94E5000B9720F480914B068823C1F3D7
S11307201092490680914B06882341F083ED92E0B4
S11307300E949B0B10924B0680E0089581E008957F
S11307402F923F924F925F926F927F928F929F92DD
S1130750AF92BF92CF92DF92EF92FF920F931F93CB
S1130760CF93DF9381E080934E068093520600E09E
S113077010E0412C512CE12CF12C612C712C812C9A
S1130780912CA12CB12CC12CD12C64C18091530685
S1130790882309F42AC10E94E500EC01081719070F
S11307A009F44AC0009709F44AC061E070E08DE0A2
S11307B090E00E94DF05DF93CF9388EE92E09F9351
S11307C08F9303EF15E01F930F930E940A13C80140
S11307D00E942906BE0180E090E00E94A70C2AE94D
S11307E039E94CEC53E40E94130CF62EE72E582EF4
S11307F0492E662E772E882E992E61E070E083E0D4
S113080090E00E94DF054F925F92EF92FF928CEE90
S113081092E09F938F931F930F930E940A13C80132
S11308200E9429068DB79EB70E960FB6F8949EBF08
S11308300FBE8DBF8E012DC00115110551F5642D1C
S1130840752D8E2D9F2D0E94E40C0E947B0C7093BD
S11308508F0560938E0560918E0570918F0580E001
S113086090E00E94A70C9B01AC01642D752D8E2D88
S11308709F2D0E94AA0B20E030E048EC52E40E9435
S1130880AC0D0E947B0C70939105609390051092BF
S11308905206262D372D482D592D6A2D7B2D8C2D52
S11308A09D2D0E94AB0BE62EF72ED82FC92FA62E16
S11308B0B72EC82ED92E62E070E083E090E00E944B
S11308C0DF0520E03CE34CE156E46E2D7F2D8D2FB7
S11308D09C2F0E940F0C8823BCF4CF93DF93FF92CC
S11308E0EF9281EF92E09F938F9383EF95E09F9334
S11308F08F930E940A138DB79EB708960FB6F8948B
S11309009EBF0FBE8DBF16C0CF93DF93FF92EF92B1
S113091086EF92E09F938F9383EF95E09F938F935D
S11309200E940A138DB79EB708960FB6F8949EBF1F
S11309300FBE8DBF83EF95E00E94290620E030E0D2
S113094040E05FE36E2D7F2D8D2F9C2F0E94AC0D18
S1130950C62FD72F382E292E462E572EE82EF92EA5
S113096062E070E08BE090E00E94DF0520E030E080
S113097046EC52E46C2F7D2F832D922D0E940F0C98
S11309808823BCF42F923F92DF93CF9381EF92E0C0
S11309909F938F9383EF95E09F938F930E940A1305
S11309A08DB79EB708960FB6F8949EBF0FBE8DBF45
S11309B016C02F923F92DF93CF938BEF92E09F93D9
S11309C08F9383EF95E09F938F930E940A138DB7C3
S11309D09EB708960FB6F8949EBF0FBE8DBF83EFE7
S11309E095E00E94290610925306809151068823AF
S11309F089F181E00E941A08833451F5642D752D24
S1130A008E2D9F2D0E94E40C0E947B0C70938F0509
S1130A1060938E0560918E0570918F0580E090E063
S1130A200E94A70C9B01AC01642D752D8E2D9F2D6A
S1130A300E94AA0B20E030E048EC52E40E94AC0D86
S1130A400E947B0C7093910560939005109252065E
S1130A501092510680915206811198CE10924E0642
S1130A6080E093E00E949B0B80918E0590918F050E
S1130A709F938F9385E093E09F938F9384EA95E00F
S1130A809F938F930E940A1384EA95E00E949B0B24
S1130A908AE093E00E949B0B8091900590919105D0
S1130AA09F938F9381E193E09F938F9381EA95E0E5
S1130AB09F938F930E940A1381EA95E00E949B0BF7
S1130AC086E193E00E949B0B80914C0590914D052B
S1130AD09F938F9387E293E09F938F938BE995E0A5
S1130AE09F938F930E940A138BE995E00E949B0BBE
S1130AF08DB79EB742960FB6F8949EBF0FBE8DBFBA
S1130B00DF91CF911F910F91FF90EF90DF90CF90E5
S1130B10BF90AF909F908F907F906F905F904F9019
S1130B203F902F9008959CB590629CBD219A299A7C
S1130B30209A28983C9A44980E946C088CB58F7D22
S1130B408CBD289A299887EC90E00197F1F700C0B2
S1130B50000028988FE79CE00197F1F700C000009F
S1130B6008952FEF80E792E0215080409040E1F714
S1130B7000C0000088E30E94930587EC90E0019791
S1130B80F1F700C000008FE00E9493058FEC97E01E
S1130B900197F1F700C0000081E00E9493058FE8FF
S1130BA091E00197F1F700C0000086E00E949305F0
S1130BB08FE99FE00197F1F700C0000008956230CB
S1130BC0710529F4982F905F9093000102C08093DF
S1130BD0000190E4699F800D1124815480680E9473
S1130BE093050895CF93C82F90910001913139F462
S1130BF062E070E081E090E00E94DF050BC091327A
S1130C0049F461E070E081E090E00E94DF0581E05A
S1130C10809300013C9A449A8CB580628CBD219AE1
S1130C20299A209A28988C2F0E946C088CB58F7D65
S1130C308CBD289A299887EC90E00197F1F700C0C1
S1130C4000002898809100018F5F80930001CF916C
S1130C500895CF93DF93EC018881882331F02196A6
S1130C600E94F20589918111FBCFDF91CF91089504
S1130C7081E00E94930508958830910509F425C107
S1130C8094F48430910509F46FC034F4009711F1A1
S1130C90039709F049C135C08630910509F4DBC0DA
S1130CA00CF006C1C1C08B30910509F47DC044F439
S1130CB08930910509F416C10A9709F035C13EC07F
S1130CC08D30910509F4DDC00CF48EC00E9709F047
S1130CD02BC115C10E94380661E070E081E090E00C
S1130CE00E94DF058CE293E00E94290662E070E036
S1130CF081E090E00E94DF0584E393E00E942906EE
S1130D0008950E94380661E070E081E090E00E945E
S1130D10DF058FE393E00E94290662E070E087E03C
S1130D2090E00E94DF058DE493E00E94290662E0D2
S1130D3070E081E090E00E94DF0508950E9438068B
S1130D4061E070E081E090E00E94DF0588E593E0D7
S1130D500E9429062FEF87EA91E6215080409040B7
S1130D60E1F700C0000008950E94380661E070E0D9
S1130D7081E090E00E94DF0585E693E00E94290669
S1130D8062E070E081E090E00E94DF0584E793E098
S1130D900E9429062FEF87EA91E621508040904077
S1130DA0E1F700C0000008950E94380661E070E099
S1130DB081E090E00E94DF058EE793E00E9429061F
S1130DC062E070E081E090E00E94DF058BE893E050
S1130DD00E9429062FEF87EA91E621508040904037
S1130DE0E1F700C0000008950E94380661E070E059
S1130DF081E090E00E94DF058BE993E00E942906E0
S1130E0062E070E081E090E00E94DF058BEA93E00D
S1130E100E9429062FEF87EA91E6215080409040F6
S1130E20E1F700C0000008950E94380661E070E018
S1130E3081E090E00E94DF0587EB93E00E942906A1
S1130E4062E070E081E090E00E94DF0584EC93E0D2
S1130E500E94290608950E94380661E070E081E04E
S1130E6090E00E94DF0585ED93E00E9429062FEFB4
S1130E7087EA91E6215080409040E1F700C00000ED
S1130E8008950E94380661E070E081E090E00E94DD
S1130E90DF0586EE93E00E94290662E070E081E0BF
S1130EA090E00E94DF0582EF93E00E9429060895F6
S1130EB00E94380661E070E081E090E00E94DF0566
S1130EC08EEF93E00E94290608950E94380661E09F
S1130ED070E081E090E00E94DF058DE094E00E94E4
S1130EE0290608950E94380661E070E081E090E0F0
S1130EF00E94DF058CE194E00E94290608950E9477
S1130F00380661E070E081E090E00E94DF058CE249
S1130F1094E00E9429062FEF87EA91E62150804051
S1130F209040E1F700C0000008958E3C09F463C0CE
S1130F3008F58D3709F443C070F48F3009F457C0B5
S1130F4020F4882309F44FC05AC0873771F18B37D6
S1130F5009F055C02EC08B3B71F130F48E37B9F1D6
S1130F60873B09F04CC04DC08D3B59F18E3B09F0D5
S1130F7046C02BC0873EA9F158F48B3DF1F018F41C
S1130F80873DE9F514C08D3DF1F08E3DC1F521C0DA
S1130F908E3E09F128F48B3E11F18D3E81F51DC082
S1130FA0803F39F18F3F59F520C081E3089583E3F1
S1130FB0089584E3089585E3089586E3089587E317
S1130FC0089588E3089589E3089580E3089581E40A
S1130FD0089582E4089583E4089584E4089585E4FB
S1130FE0089586E408958CE4089588E4089581E5DD
S1130FF0089580E508950E94380680E0089588E504
S1131000089582E3089590913F0689130DC080915D
S11310104006853021F41092400681E008958F5FE8
S11310208093400680E0089580933F061092400626
S113103080E008951F93CF93DF93182F97B19F609B
S113104097B988B118B88AB11AB89BB1906F9BB997
S113105087EC90E00197F1F700C00000C9B1C07FB0
S113106087B117B898B19F6098B99AB1906F9AB93F
S11310708BB11BB887EC90E00197F1F700C000003A
S113108096B19F70C92BCF3FA9F08C2F0E94950772
S1131090D82F8093410680914206D81779F08C2F7F
S11310A00E940308882361F0D0934206112349F07B
S11310B0CD2F07C010924206C0E003C0C0E001C0BB
S11310C0C0E08C2FDF91CF911F91089584B18C6281
S11310D084B982E58CBD08958EBD0DB407FEFDCFA5
S11310E00895E9E6F0E080818F6080838DB38360AA
S11310F08DBB8AB1837F8AB9229A2A9A089589E09E
S1131100809381008FE79EE3909389008093880009
S113111082E080936F0008951F920F920FB60F9292
S113112011242F938F939F93EF93FF938091430602
S1131130909144062091C600FC01E25BFA4F2083A3
S11311402A3241F4109244061092430681E08093BF
S1131150480605C001969093440680934306FF9188
S1131160EF919F918F912F910F900FBE0F901F9031
S113117018951F920F920FB60F9211248F939F937D
S1131180809152068823F1F08091090190910A011F
S1131190019790930A0180930901892BC9F48091E6
S11311A04C0590914D05019690934D0580934C0507
S11311B088EE93E090930A018093090181E0809383
S11311C0530606C088EE93E090930A0180930901C8
S11311D080914E068823A9F080910701909108011F
S11311E001979093080180930701892B81F489E08A
S11311F090E0909308018093070181E08093510669
S113120006C089E090E090930801809307018091E3
S11312104A068823A9F0809105019091060101975F
S11312209093060180930501892B81F480E197E274
S1131230909306018093050181E080934C0606C0DB
S113124080E197E29093060180930501809149061D
S11312508823A9F080910301909104010197909350
S1131260040180930301892B81F480E197E2909338
S113127004018093030181E080934B0606C080E162
S113128097E290930401809303018091550688238B
S1131290A9F08091010190910201019790930201BC
S11312A080930101892B81F480E69AEE90930201E8
S11312B08093010181E08093540606C080E69AEE93
S11312C090930201809301019F918F910F900FBE23
S11312D00F901F9018951F920F920FB60F92112422
S11312E08F9380914F06811103C081E08093500653
S11312F08F910F900FBE0F901F9018951F920F9211
S11313000FB60F9211248F9381E080934F068F9133
S11313100F900FBE0F901F9018950E9466080E94B0
S1131320860B0E9471080E947F080E94B1050E94EA
S1131330D400789488E394E00E949B0B23E630E089
S1131340C8E0D0E00F2EFEE0CF2ED12CF02D0F2ED2
S1131350F5E08F2E912CF02D0F2EF9E06F2E712CCD
S1131360F02D6894222422F8312C0F2EF6E0EF2E73
S1131370F12CF02D0F2EF7E04F2E512CF02D03E021
S113138010E00F2EFCE0AF2EB12CF02D01C09C011B
S113139080914506909146068217930741F4209167
S11313A050062223A1F3009791F19C01F1CF8730DD
S11313B0910509F44BC194F48330910509F48DC06F
S11313C034F4009721F1029709F09BC144C08530A1
S11313D0910509F406C10CF019C1D0C08A309105F9
S11313E009F4B9C044F48830910509F446C1099759
S11313F009F087C162C18D30910509F4D2C08E30E5
S1131400910509F46FC10C9709F07BC153C084E4C2
S113141094E00E949B0B80914506909146060E94A1
S11314203C0680915006882389F080E594E00E9470
S11314309B0B0E94F400209145063091460682E001
S113144090E09093460680934506A2CF20914506EE
S1131450309146069DCF8FE594E00E949B0B8091CE
S11314604D068823F1F081E794E00E949B0B0E94D3
S11314702F02882349F020914506309146061093A7
S11314804606009345060AC020914506309146065B
S11314908AE090E0909346068093450610924D06AC
S11314A077CF2091450630914606B0924606A09229
S11314B045066ECF8BE794E00E949B0B8091450616
S11314C0909146060E943C062091450630914606BE
S11314D010924606109245065BCF8DE894E00E9478
S11314E09B0B80914506909146060E943C060E9403
S11314F085028823C1F00E94E500059758F42091E5
S11315004506309146068DE090E090934606809320
S113151045063ECF209145063091460690924606F8
S11315208092450635CF80914706882359F0109262
S113153047062091450630914606109246061092C1
S1131540450626CF20914506309146063092460640
S1131550209245061DCF81EA94E00E949B0B809166
S11315604506909146060E943C062091450630911E
S1131570460610924606109245060ACF84EB94E084
S11315800E949B0B80914506909146060E943C0662
S11315902091450630914606109346060093450671
S11315A0F7CE89EC94E00E949B0B809145069091C4
S11315B046060E943C060E948103882349F020913C
S11315C04506309146069092460680924506E0CE46
S11315D02091450630914606109246061092450623
S11315E0D7CE8BED94E00E949B0B809145069091A1
S11315F046060E943C060E94A003209145063091B5
S11316004606F0924606E0924506C2CE8BEE94E082
S11316100E949B0B80914506909146060E943C06D1
S11316200E94E500069748F0209145063091460651
S11316305092460640924506ABCE20914506309125
S11316404606D0934606C0934506A2CE82E095E0B6
S11316500E949B0B80914506909146060E943C0691
S11316600E94E5000697E0F7209145063091460672
S1131670D0934606C09345068BCE87E195E00E9441
S11316809B0B80914506909146060E943C060E9461
S11316900C03882349F020914506309146061092A8
S11316A046061092450674CE2091450630914606B2
S11316B070924606609245066BCE89E295E00E94E0
S11316C09B0B80914506909146060E943C060E9421
S11316D06203209145063091460610924606109208
S11316E0450656CE8AE395E00E949B0B8091450601
S11316F0909146060E943C0620914506309146068C
S113170047CED0924606C092450642CE88E98093E1
S1131710C10086E08093C20082E08093C00087E627
S11317208093C4000895E0ECF0E0908195FFFDCF34
S11317308093C6000895CF93DF93EC0188818823BA
S113174031F021960E94930B89918111FBCFDF9197
S1131750CF9108955058BB27AA270ED0ACC19DD174
S113176030F0A2D120F031F49F3F11F41EF492C165
S11317700EF4E095E7FB5FC1E92FAED180F3BA1711
S1131780620773078407950718F071F49EF5DDC1AD
S11317900EF4E0950B2EBA2FA02D0B01B901900188
S11317A00C01CA01A0011124FF27591B99F0593FCC
S11317B050F4503E68F11A16F040A22F232F342F14
S11317C04427585FF3CF469537952795A795F04062
S11317D05395C9F77EF41F16BA0B620B730B840B77
S11317E0BAF09150A1F0FF0FBB1F661F771F881F2F
S11317F0C2F70EC0BA0F621F731F841F48F4879587
S113180077956795B795F7959E3F08F0B3CF939575
S1131810880F08F09927EE0F979587950895E7D0DC
S113182008F481E008950CD046C13ED140F035D192
S113183030F021F45F3F19F0FEC0511187C12AC175
S11318404BD198F39923C9F35523B1F3951B550B49
S1131850BB27AA2762177307840738F09F5F5F4F7F
S1131860220F331F441FAA1FA9F333D00E2E3AF0C0
S1131870E0E830D091505040E695001CCAF729D0DA
S1131880FE2F27D0660F771F881FBB1F2617370729
S11318904807AB07B0E809F0BB0B802DBF01FF2759
S11318A093585F4F2AF09E3F510568F0C4C04EC163
S11318B05F3FECF3983EDCF3869577956795B79593
S11318C0F7959F5FC9F7880F911D9695879597F9AE
S11318D00895E1E0660F771F881FBB1F6217730727
S11318E08407BA0720F0621B730B840BBA0BEE1F3C
S11318F088F7E0950895F8D088F09F5790F0B92FB5
S11319009927B751A0F0D1F0660F771F881F991F50
S11319101AF0BA95C9F712C0B13081F016D1B1E00E
S1131920089513C1672F782F8827B85F39F0B93F1E
S1131930CCF3869577956795B395D9F73EF4909552
S11319408095709561957F4F8F4F9F4F0895E894D0
S113195009C097FB3EF490958095709561957F4FF3
S11319608F4F9F4F9923A9F0F92F96E9BB279395A1
S1131970F695879577956795B795F111F8CFFAF4B1
S1131980BB0F11F460FF1BC06F5F7F4F8F4F9F4FE2
S113199016C0882311F096E911C0772321F09EE840
S11319A0872F762F05C0662371F096E8862F70E0A6
S11319B060E02AF09A95660F771F881FDAF7880F80
S11319C09695879597F90895A9D080F09F3740F4AC
S11319D091110EF0BBC060E070E080E89FEB0895C9
S11319E026F41B16611D711D811D2BC045C0990F66
S11319F00008550FAA0BE0E8FEEF16161706E807D5
S1131A00F907C0F012161306E407F50798F0621BF5
S1131A10730B840B950B39F40A2661F0232B242BCA
S1131A20252B21F408950A2609F4A140A6958FEFE9
S1131A30811D811D089597F99F6780E870E060E03B
S1131A400895882371F4772321F09850872B762FFB
S1131A5007C0662311F499270DC09051862B70E0BE
S1131A6060E02AF09A95660F771F881FDAF7880FCF
S1131A709695879597F908959F3F31F0915020F4FA
S1131A80879577956795B795880F911D9695879556
S1131A9097F908959FEF80EC089500240A94161690
S1131AA0170618060906089500240A941216130648
S1131AB0140605060895092E0394000C11F48823D6
S1131AC052F0BB0F40F4BF2B11F460FF04C06F5FF2
S1131AD07F4F8F4F9F4F089557FD9058440F551FC8
S1131AE059F05F3F71F04795880F97FB991F61F09C
S1131AF09F3F79F087950895121613061406551F13
S1131B00F2CF4695F1DF08C0161617061806991F7E
S1131B10F1CF86957105610508940895E5DFA0F07D
S1131B20BEE7B91788F4BB279F3860F41616B11DB9
S1131B30672F782F8827985FF7CF869577956795D5
S1131B40B11D93959639C8F30895E894BB27662789
S1131B507727CB0197F908950BD0ADCF9EDF28F0FE
S1131B60A3DF18F0952309F066CF94CF1124EECFAC
S1131B70B3DFA0F3959FD1F3950F50E0551F629FFB
S1131B80F001729FBB27F00DB11D639FAA27F00DD2
S1131B90B11DAA1F649F6627B00DA11D661F829FF9
S1131BA02227B00DA11D621F739FB00DA11D621FDE
S1131BB0839FA00D611D221F749F3327A00D611DFB
S1131BC0231F849F600D211D822F762F6A2F1124DD
S1131BD09F5750408AF0E1F088234AF0EE0FFF1F30
S1131BE0BB1F661F771F881F91505040A9F79E3F67
S1131BF0510570F020CFAACF5F3FECF3983EDCF3A1
S1131C00869577956795B795F795E7959F5FC1F7A3
S1131C10FE2B880F911D9695879597F90895A2E15B
S1131C20B0E0E5E1FEE00C9491117C011B016A0136
S1131C30FC0117821682838181FD03C06BC3650199
S1131C4005C088248394912C8C0E9D1EF7019381EA
S1131C50F10193FD859193FF81911F01882309F47C
S1131C6055C3853239F493FD859193FF81911F010A
S1131C70853231F4B70190E00E94DE125601DFCFC5
S1131C80712C612C20E02032A8F48B3261F028F40E
S1131C90803251F0833271F40BC08D3239F08033CD
S1131CA049F4216028C02260246025C0286023C034
S1131CB0206121C027FD27C0382F30533A3078F4F3
S1131CC026FF06C0FAE07F9E300D1124732E13C048
S1131CD04AE0649E300D1124632E20620CC08E32C3
S1131CE021F426FD13C3206406C08C3611F4206849
S1131CF002C0883641F4F10193FD859193FF8191EF
S1131D001F018111C0CF982F9554933018F420618E
S1131D10805E06C0982F9556933008F0A4C12F7E9C
S1131D2026FD02C016E0712EBFE35B2E52228536DB
S1131D3019F4F0E45F2A07C0863619F440E8542AFF
S1131D4002C071107A9457FE07C05BE3571548F040
S1131D50472C439427E00DC087E0871530F0272DEA
S1131D6007C027E0ACE34A2E04C027E0F7E07F2E4B
S1131D70412C560194E0A90EB11CF60160817181D9
S1131D8082819381042DA4010E94C8118C01498190
S1131D904C8740FF02C043FF07C051FC08C052FEFD
S1131DA009C0E0E2DE2E07C07DE2D72E04C06BE25C
S1131DB0D62E01C0D12C8C858C70A1F1DD2011F0C0
S1131DC084E001C083E0861510F0612C0BC0681A12
S1131DD053FC08C0B70180E290E00E94DE126A94CE
S1131DE0C9F7F3CFDD2029F0B7018D2D90E00E94D3
S1131DF0DE125C8553FD03C00CE610E00CC008E65F
S1131E0010E009C051108052B70190E00E94DE1228
S1131E100F5F1F4F02C080E15822F80184918111A5
S1131E20F1CF71C257FE0EC0400E4C8544FF04C072
S1131E308A81813309F44A9414144CF558E05415FA
S1131E4048F12CC056FC2AC0872D90E080179107DA
S1131E5044F00C3F8FEF180724F090E8592A01C092
S1131E607A94772049F0E2E0F0E0EC0FFD1FE70DF3
S1131E70F11D80818033A1F357FE10C0472C439499
S1131E80872D90E00817190744F4701A07C04424FA
S1131E90439404C058E0452E01C0712C57FE07C07E
S1131EA0101611063CF498012F5F3F4F05C025E042
S1131EB030E002C021E030E0DD2011F02F5F3F4F21
S1131EC0772031F0472D50E04F5F5F4F240F351FCF
S1131ED0462D50E02417350714F4621A01C0612C12
S1131EE0852D897049F406C0B70180E290E00E9414
S1131EF0DE126A946110F8CFDD2029F0B7018D2D30
S1131F0090E00E94DE1253FC09C006C0B70180E3D2
S1131F1090E00E94DE126A946110F8CF57FE56C01A
S1131F20680117FF02C0C12CD12C20E030E0A801C9
S1131F30441951095E874D8728014C185D08480CE7
S1131F40591C872D90E044275527481B590B588B63
S1131F504F875FEFC516D50649F4B7018EE290E0CE
S1131F602A8B398B0E94DE1239892A890C151D05AA
S1131F7054F04D855E854C155D052CF4F201E20F9D
S1131F80F31F818101C080E351E0C51AD1082F5F9E
S1131F903F4F4F855889C416D5064CF0B70190E0E1
S1131FA02A8B398B0E94DE122A893989D2CFC01636
S1131FB0D10649F49A81963328F4953321F45C854B
S1131FC054FD01C081E3B70190E04AC08A818133A6
S1131FD019F04C854F7E4C87B70190E00E94DE12C9
S1131FE0711005C054FE16C085E490E015C0B70119
S1131FF08EE290E00E94DE1242E0D42EF401ED0D58
S1132000F11DD394B701808190E00E94DE127A948E
S1132010A9F7E8CF85E690E0B7010E94DE1217FD2C
S113202006C00115110541F45C8554FF05C01195E6
S1132030019511098DE201C08BE2B70190E00E9485
S1132040DE1280E303C08F5F0A5011090A301105C4
S1132050D4F7B70190E00E94DE12B701C801C09620
S11320600E94DE1250C1833631F0833781F083350C
S113207009F05EC024C0560182E0A80EB11CF6012E
S113208080818983CC24C394D12C840114C056014B
S1132090F2E0AF0EB11CF6010081118126FF03C0EE
S11320A0672D70E002C06FEF7FEFC8012A8B0E949A
S11320B0D3126C012A899FE7592E522217C0560168
S11320C0F2E0AF0EB11CF6010081118126FF03C0BE
S11320D0672D70E002C06FEF7FEFC8012A8B0E946A
S11320E0A0126C012A8980E8582E522A53FC1CC085
S11320F006C0B70180E290E00E94DE126A94862D49
S113210090E0C816D906A8F30FC0F80157FC8591D2
S113211057FE81918F01B70190E00E94DE12611099
S11321206A94F1E0CF1AD108C114D10471F7EBC05D
S1132130843611F0893651F5560127FF09C044E071
S1132140A40EB11CF60160817181828193810AC061
S1132150F2E0AF0EB11CF60160817181882777FD32
S11321608095982F122F1F7697FF08C09095809521
S1132170709561957F4F8F4F9F4F10682AE030E034
S1132180A4010E942C13D82ED81840C0122F8537D2
S113219021F41F7E2AE030E01FC0197F8F36A1F0A2
S11321A020F4883509F0B2C00BC0803721F088379D
S11321B009F0ACC001C0106114FF09C0146007C06D
S11321C024FF08C0166006C028E030E005C020E106
S11321D030E002C020E132E0560117FF09C0F4E00C
S11321E0AF0EB11CF601608171818281938108C0B8
S11321F0F2E0AF0EB11CF6016081718180E090E0E5
S1132200A4010E942C13D82ED8181F7716FF0BC0D8
S1132210212F2E7FD71450F414FF0AC012FD08C0DA
S1132220212F2E7E05C00D2D212F03C00D2D01C0A1
S1132230072D24FF0CC0FE01ED0DF11D80818033BC
S113224011F4297E08C022FF05C00E5F04C0822F4E
S1132250867809F00F5F23FD14C020FF0FC07D2C8A
S1132260061560F4760C701A062D08C0B70180E2DA
S113227090E02A8B0E94DE120F5F2A890615B0F3C4
S113228004C0061510F4601A01C0612C24FF12C0AA
S1132290B70180E390E02A8B0E94DE122A8922FF94
S11322A01EC021FF03C088E590E002C088E790E0EB
S11322B0B7010CC0822F867891F021FD02C080E224
S11322C001C08BE227FD8DE2B70190E00E94DE128F
S11322D006C0B70180E390E00E94DE127A94D7141E
S11322E0C0F3DA94F401ED0DF11DB701808190E0A3
S11322F00E94DE12D110F5CF06C0B70180E290E053
S11323000E94DE126A946110F8CF99CCF7012681FD
S1132310378102C02FEF3FEFC9016296E2E10C94CE
S1132320AD112F923F924F925F926F927F928F9254
S11323309F92AF92BF92CF92DF92EF92FF920F9350
S11323401F93CF93DF93CDB7DEB7CA1BDB0B0FB65A
S1132350F894DEBF0FBECDBF09942A883988488817
S11323605F846E847D848C849B84AA84B984C884AD
S1132370DF80EE80FD800C811B81AA81B981CE0FA4
S1132380D11D0FB6F894DEBF0FBECDBFED01089589
S1132390283008F027E03327DA01990F311D87FD33
S11323A0916000966105710539F432602E5F3D93AA
S11323B030E32A95E1F708959F3F30F080387105A6
S11323C0610509F03C5F3C5F3D93913008F0806803
S11323D0911DDF93CF931F930F93FF92EF92192FC9
S11323E0987F9695E92F96959695E90FFF27E653E2
S11323F0FF4F99273327EE24FF24A701E701059017
S11324000894079428F4360FE71EF81E491F511D3F
S1132410660F771F881F991F0694A1F705900794EC
S113242028F4E70EF81E491F561FC11D770F881F99
S1132430991F661F0694A1F70590079428F4F80ED7
S1132440491F561FC71FD11D880F991F661F771F6D
S11324500694A1F70590079420F4490F561FC71F4F
S1132460D81F990F661F771F881F0694A9F78491B8
S11324701095177041F0D695C79557954795F794E1
S1132480E7941A95C1F7E0E7F0E068941590159188
S113249035916591959105907FE27395E118F10A64
S11324A0430B560BC90BD009C0F7E10CF11E431FB7
S11324B0561FC91FD01D7EF4703311F48A95E6CFE0
S11324C0E894015030F0080F0AF40027021708F4CA
S11324D0202F2395022F7A3328F079E37D932A95D0
S11324E0E9F710C07D932A9589F606949795679528
S11324F0379517951794E118F10A430B560BC90B3E
S1132500D00998F023957E9173957A3308F070E39F
S11325107C932013B8F77E9170617D9330F083959E
S113252071E37D9370E32A95E1F71124EF90FF9016
S11325300F911F91CF91DF91992787FD9095089571
S1132540FC010590615070400110D8F7809590957A
S11325508E0F9F1F0895FB01DC010D900020E9F709
S1132560119701900D920020E1F70895FB01DC0121
S11325704150504030F08D910190801919F40020A1
S1132580B9F7881B990B0895FB01DC0141505040B9
S113259048F001900D920020C9F701C01D924150EE
S11325A05040E0F70895FC01615070400190011023
S11325B0D8F7809590958E0F9F1F08950F931F93C2
S11325C0CF93DF938C01EB018B8181FD03C00FEF6F
S11325D01FEF1AC082FF0DC02E813F818C819D8127
S11325E02817390764F4E881F9810193F983E883B2
S11325F006C0E885F985802F0995892B41F78E81DE
S11326009F8101969F838E83C801DF91CF911F9193
S11326100F910895AEE0B0E0E0E1F3E10C949F1176
S11326200D891E8986E08C831A8309838FEF9FE7C7
S11326309E838D83CE014996AC016F89788DCE013E
S113264001960E940F0EEF81F885E00FF11F1082B2
S11326502E96E4E00C94BB11FA01AA27283051F11C
S1132660203181F1E8946F936E7F6E5F7F4F8F4FBF
S11326709F4FAF4FB1E03ED0B4E03CD0670F781F1E
S1132680891F9A1FA11D680F791F8A1F911DA11D03
S11326906A0F711D811D911DA11D20D009F468943C
S11326A03F912AE0269F11243019305D3193DEF6E4
S11326B0CF010895462F4770405D4193B3E00FD09A
S11326C0C9F7F6CF462F4F70405D4A3318F0495D85
S11326D031FD4052419302D0A9F7EACFB4E0A69568
S11326E09795879577956795BA95C9F7009761058A
S11326F0710508959B01AC010A2E069457954795E0
S113270037952795BA95C9F7620F731F841F951FD4
S10B2710A01D0895F894FFCF09
S11327180160EA102710270900E803446174612066
S11327285265616479200A00554944203D200025FA
S11327385800436F6D6D616E64206661696C6564F1
S1132748200A005246494420726561646572207407
S1132758696D656F7574200A002563002525004599
S113276872726F7220436F6D6D616E642053746171
S11327787465005061636B65742073656E640A0048
S11327887265636569766542756666657220636F0E
S11327986E74656E740A0076616C69646174652090
S11327A8636172642070617373526573756C74200D
S11327B8636F6E74656E740A0074727565004361A4
S11327C872646B6E6F776E20636F6D6D756E69637F
S11327D86174696F6E2074696D656F75740A005051
S11327E8617373776F72642074797065640A00701A
S11327F8617373776F7264526573756C7420636F59
S11328086E74656E740A0056616C6964617465203F
S113281870617373776F726420636F6D6D756E6921
S1132828636174696F6E2074696D656F75740A00ED
S11328387265636569766542756666657220636F5D
S11328486E74656E742E2045787065637465643A99
S1132858202530303141747275652A0A0041636B52
S11328686E6F776C65646765207061737352657306
S1132878756C7420636F6E74656E740A0055706CA1
S11328886F61642043686172676520436F6D6D757D
S11328986E69636174696F6E2074696D656F7574B0
S11328A80A0054727920636F6E6E656374696F6E83
S11328B82066756E6374696F6E0A0074727920639A
S11328C86F6E6E65637420696E74657276616C0AE6
S11328D8007761697420666F722074696D656F751D
S11328E8740A00636F6E6E6563742063617220748A
S11328F8696D656F75740A0025347500252E326676
S113290800252E31660025352E660025342E6600F6
S11329180A4B72200025303475000A4F6572652011
S11329280025303275000A54696D6520696E20737C
S113293865636F6E647300253035750057656C6385
S11329486F6D650053776970652043617264005444
S11329587970652050617373776F72640043203D0A
S11329682063616E63656C006361726420756E6BCD
S11329786E6F776E0077726F6E672070617373770E
S11329886F72640074727920616761696E006361B3
S1132998726420626C6F636B656400636F6E74614C
S11329A86374207365727669636500636172642079
S11329B872656164206572726F72007377697065FD
S11329C820616761696E00503A20202020206D57ED
S11329D820413A00453A20202020206D57532020DA
S11329E820206B72004368617267696E6720737494
S11329F86F7070656400436F6E6E65637420436125
S1132A087200746F20636F6E74696E756500446933
S1132A1873636F6E6E656374204361720055706CE6
S1132A286F6164696E6720646174610043686172F0
S1132A38676572204F66666C696E65004572726FD1
S1132A487220537461746500436172642074657301
S1132A5874200A00737461746549646C65200A0003
S1132A68436172642050726573656E74200A007342
S1132A787461746543617264537769706564200A8C
S1132A8800676F7420554944200A00446964206E25
S1132A986F742067657420554944200A0073746173
S1132AA874655479706550617373776F7264200A22
S1132AB8007374617465556E6B6E6F776E436172E3
S1132AC864200A00737461746557726F6E6750618D
S1132AD87373776F7264200A007374617465436F4B
S1132AE86E6E656374436172200A00737461746561
S1132AF84368617267696E67200A0073746174655C
S1132B084368617267696E6753746F707065642097
S1132B180A007374617465446973636F6E6E6563E8
S1132B2874436172200A00737461746555706C6F24
S1132B386164546F4442200A0073746174654442AA
S1132B486F66666C696E65200A0073746174654506
S10F2B5872726F725374617465200A007D
S9030000FC
