S01B000053746174654D616368696E65436F6E74726F6C2E7372656372
S11300000C94B5000C9497040C94AA040C94D2009C
S11300100C94D2000C94D2000C94D2000C94D20014
S11300200C94D2000C94D2000C94D2000C940D04C5
S11300300C94D2000C94D2000C94D2000C94D200F4
S11300400C94D2000C94D2000C94E0030C94D200D3
S11300500C94D2000C94D2000C94D2000C94D200D4
S11300600C94D2000C94D2006E616E00696E66002E
S113007000407A10F35A00A0724E18090010A5D45B
S1130080E80000E87648170000E40B54020000CAB8
S11300909A3B000000E1F5050000809698000000FE
S11300A040420F000000A08601000000102700005D
S11300B00000E803000000006400000000000A00E3
S11300C0000000000100000000002C76D888DC67E6
S11300D04F0823DFC1DFAE59E1B1B796E5E3E4533E
S11300E0C63AE651997696E8E6C28426EB898C9B5B
S11300F062ED407C6FFCEFBC9C9F40F2BAA56FA5FB
S1130100F490055A2AF75C936B6CF9676DC11BFC7C
S1130110E0E40D47FEF520E6B500D0ED902E030097
S1130120943577050080841E080000204E0A0000E4
S113013000C80C333333330F986E12831141EF8DA3
S11301402114893BE65516CFFEE6DB18D1844B38E3
S11301501BF77C1D901DA4BBE424203284725E2214
S11301608100C9F124ECA1E53D2711241FBECFEF86
S1130170D8E0DEBFCDBF14E0A0E0B1E0E8E8F2E2F1
S113018002C005900D92AA31B107D9F725E0AAE182
S1130190B4E001C01D92A530B207E1F70E94DC076C
S11301A00C9442110C9400003D98ECE7F0E080813F
S11301B085608083EEE7F0E0808180628083EAE7F7
S11301C0F0E08081876980830895EAE7F0E0808128
S11301D080648083808184FFFDCF209178003091FA
S11301E07900822F932F08959CB590629CBD219A2B
S11301F0299A209A28983C9A44980E94CD038CB559
S11302008F7D8CBD289A299887EC90E00197F1F7AF
S113021000C0000028988FE79CE00197F1F700C028
S1130220000008952FEF80E792E021508040904035
S1130230E1F700C0000088E30E94F40087EC90E03E
S11302400197F1F700C000008FE00E94F4008FECEA
S113025097E00197F1F700C0000081E00E94F400EC
S11302608FE891E00197F1F700C0000086E00E945A
S1130270F4008FE99FE00197F1F700C000000895B2
S11302806230710529F4982F905F9093000102C0A9
S11302908093000190E4699F800D1124815480684B
S11302A00E94F4000895CF93C82F909100019131DA
S11302B039F462E070E081E090E00E9440010BC0FC
S11302C0913249F461E070E081E090E00E944001E5
S11302D081E0809300013C9A449A8CB580628CBD85
S11302E0219A299A209A28988C2F0E94CD038CB5A4
S11302F08F7D8CBD289A299887EC90E00197F1F7BF
S113030000C000002898809100018F5F8093000155
S1130310CF910895CF93DF93EC018881882331F046
S113032021960E94530189918111FBCFDF91CF91D6
S1130330089581E00E94F40008958830910509F43D
S113034025C194F48430910509F46FC034F4009706
S113035011F1039709F049C135C08630910509F4BC
S1130360DBC00CF006C1C1C08B30910509F47DC01F
S113037044F48930910509F416C10A9709F035C18E
S11303803EC08D30910509F4DDC00CF48EC00E978B
S113039009F02BC115C10E94990161E070E081E070
S11303A090E00E94400189E091E00E948A0162E0AD
S11303B070E081E090E00E94400181E191E00E94C0
S11303C08A0108950E94990161E070E081E090E063
S11303D00E9440018CE191E00E948A0162E070E099
S11303E087E090E00E9440018AE291E00E948A0145
S11303F062E070E081E090E00E94400108950E9474
S1130400990161E070E081E090E00E94400185E3A1
S113041091E00E948A012FEF87EA91E62150804003
S11304209040E1F700C0000008950E94990161E046
S113043070E081E090E00E94400182E491E00E943B
S11304408A0162E070E081E090E00E94400181E571
S113045091E00E948A012FEF87EA91E621508040C3
S11304609040E1F700C0000008950E94990161E006
S113047070E081E090E00E9440018BE591E00E94F1
S11304808A0162E070E081E090E00E94400188E629
S113049091E00E948A012FEF87EA91E62150804083
S11304A09040E1F700C0000008950E94990161E0C6
S11304B070E081E090E00E94400188E791E00E94B2
S11304C08A0162E070E081E090E00E94400188E8E7
S11304D091E00E948A012FEF87EA91E62150804043
S11304E09040E1F700C0000008950E94990161E086
S11304F070E081E090E00E94400184E991E00E9474
S11305008A0162E070E081E090E00E94400181EAAB
S113051091E00E948A0108950E94990161E070E0CF
S113052081E090E00E94400182EB91E00E948A0108
S11305302FEF87EA91E6215080409040E1F700C018
S1130540000008950E94990161E070E081E090E06C
S11305500E94400183EC91E00E948A0162E070E015
S113056081E090E00E9440018FEC91E00E948A01BA
S113057008950E94990161E070E081E090E00E949A
S113058040018BED91E00E948A0108950E94990137
S113059061E070E081E090E00E9440018AEE91E029
S11305A00E948A0108950E94990161E070E081E04F
S11305B090E00E94400189EF91E00E948A01089531
S11305C00E94990161E070E081E090E00E944001A6
S11305D089E092E00E948A012FEF87EA91E6215098
S11305E080409040E1F700C0000008958E3C09F47B
S11305F063C008F58D3709F443C070F48F3009F4F3
S113060057C020F4882309F44FC05AC0873771F1CA
S11306108B3709F055C02EC08B3B71F130F48E3707
S1130620B9F1873B09F04CC04DC08D3B59F18E3B6D
S113063009F046C02BC0873EA9F158F48B3DF1F078
S113064018F4873DE9F514C08D3DF1F08E3DC1F5F8
S113065021C08E3E09F128F48B3E11F18D3E81F5C7
S11306601DC0803F39F18F3F59F520C081E30895C3
S113067083E3089584E3089585E3089586E3089564
S113068087E3089588E3089589E3089580E308954E
S113069081E4089582E4089583E4089584E4089548
S11306A085E4089586E408958CE4089588E4089523
S11306B081E5089580E508950E94990180E00895F8
S11306C088E5089582E3089590911A0489130DC072
S11306D080911B04853021F410921B0481E008955D
S11306E08F5F80931B0480E0089580931A04109216
S11306F01B0480E008951F93CF93DF93182F97B1C5
S11307009F6097B988B118B88AB11AB89BB1906F35
S11307109BB987EC90E00197F1F700C00000C9B1E4
S1130720C07F87B117B898B19F6098B99AB1906F9C
S11307309AB98BB11BB887EC90E00197F1F700C030
S1130740000096B19F70C92BCF3FA9F08C2F0E9457
S1130750F602D82F80931C0480911D04D81779F0D9
S11307608C2F0E946403882361F0D0931D0411230D
S113077049F0CD2F07C010921D04C0E003C0C0E0B3
S113078001C0C0E08C2FDF91CF911F91089584B1F7
S11307908C6284B982E58CBD08958EBD0DB407FECC
S11307A0FDCF0895E9E6F0E080818F6080838DB30A
S11307B083608DBB8AB1837F8AB9229A2A9A08956D
S11307C01F920F920FB60F9211242F938F939F9322
S11307D0EF93FF938091F7049091F8042091C60061
S11307E0FC01E25EFB4F20832A3241F41092F804AC
S11307F01092F70481E08093EB0405C00196909376
S1130800F8048093F704FF91EF919F918F912F91BA
S11308100F900FBE0F901F9018951F920F920FB656
S11308200F9211248F939F938091F5048823A9F04C
S1130830809107019091080101979093080180939A
S11308400701892B81F488EE93E09093080180934B
S1130850070181E08093F60406C088EE93E090934C
S11308600801809307018091F1048823A9F0809105
S1130870050190910601019790930601809305016B
S1130880892B81F489E090E090930601809305011F
S113089081E08093F40406C089E090E0909306011F
S11308A0809305018091ED048823A9F080910301D0
S11308B09091040101979093040180930301892B83
S11308C081F484E690E0909304018093030181E035
S11308D08093EF0406C084E690E090930401809333
S11308E003018091EC048823A9F080910101909187
S11308F0020101979093020180930101892B81F4F5
S113090080E197E2909302018093010181E080935A
S1130910EE0406C080E197E2909302018093010106
S11309209F918F910F900FBE0F901F9018951F925B
S11309300F920FB60F9211248F938091F2048111BC
S113094003C081E08093F3048F910F900FBE0F904A
S11309501F9018951F920F920FB60F9211248F9328
S113096081E08093F2048F910F900FBE0F901F903F
S1130970189589E0809381008FE79EE39093890026
S11309808093880082E080936F000895EF92FF9235
S11309900F931F93CF93DF932A9885E50E94CD038D
S11309A02A9A81E08093ED041092F3048091F2047A
S11309B08823E1F38091EF048823C1F31092ED04BE
S11309C01092EF048091F204882309F46FC085E14A
S11309D092E00E94E0092A9885EF0E94CD032A9AAA
S11309E08FE891E00197F1F700C000008EB58638DA
S11309F009F053C087E0E2E2F2E0AEE9B4E001902E
S1130A000D928A95E1F707E010E00F2EF9E2EF2E40
S1130A10F2E0FF2EF02DCEE5D4E02A9885EF0E9477
S1130A20CD032A9A8FE891E00197F1F700C0000006
S1130A308EB51F928F93FF92EF92DF93CF930E9414
S1130A40C210BE018EE994E00E9471100150110998
S1130A500F900F900F900F900F900F90F1F6EEE91A
S1130A60F4E001900020E9F731978AE090E0918367
S1130A7080838EE994E00E94E00948E050E064EA53
S1130A8074E08EED94E00E947C108EED94E00E9460
S1130A90E00981E08093F00406C08CE292E00E94B9
S1130AA0E0091092F0041092F20408C08DE392E081
S1130AB00E94E0091092F2041092F004DF91CF91A9
S1130AC01F910F91FF90EF900895DF92EF92FF92A4
S1130AD00F931F93CF93DF931F92CDB7DEB7D82E1A
S1130AE01F928F9323E532E03F932F93EE24E394F8
S1130AF0F12CEC0EFD1EFF92EF920E94C21026E52F
S1130B0032E03F932F930EE514E01F930F930E945E
S1130B10C210F80101900020E9F7319740E350E357
S1130B2061E370E04083518362837383B701C8013A
S1130B300E9471100FB6F894DEBF0FBECDBF9CE4C7
S1130B40D91649F086E5D81212C06EED74E0C801DA
S1130B500E9471100CC06EED74E08EE594E00E946A
S1130B6071106BEF74E08EE594E00E947110EEE575
S1130B70F4E001900020E9F731978AE290E0918354
S1130B80808389E592E00E94E0098EE594E00E946A
S1130B90E0090F90DF91CF911F910F91FF90EF909B
S1130BA0DF900895CF93DF9386E50E946505109248
S1130BB0EB048091EB048823E1F386E692E00E9443
S1130BC0E0098EE194E00E94E009CEE1D4E08D8159
S1130BD09E81AF81B8858093010590930205A0930F
S1130BE00305B0930405109205058DE792E00E9479
S1130BF0E00981E095E00E94E00980E4FE011192A1
S1130C008A95E9F781E0DF91CF910895CF93DF933F
S1130C10C0E0D0E081E00E947B03882379F0833434
S1130C2041F0FE01E550FB4F80830E945301219661
S1130C3005C081E08093EA0480E03AC0C430D10565
S1130C404CF38FE992E00E94E0098BEF94E00E945C
S1130C50E0098CE40E9465051092EB048091EB049A
S1130C608823E1F386E692E00E94E0098EE194E0B5
S1130C700E94E009CEE1D4E088899989AA89BB89D8
S1130C808093010590930205A0930305B093040596
S1130C90109205058FEA92E00E94E00981E095E058
S1130CA00E94E00980E4FE0111928A95E9F781E04F
S1130CB0DF91CF91089581E08093EC0487EC92E07A
S1130CC00E94E0090E94E5000B9720F48091EE0455
S1130CD08823C1F31092EC048091EE04882341F040
S1130CE089ED92E00E94E0091092EE0480E00895FC
S1130CF081E008952F923F924F925F926F927F927C
S1130D008F929F92AF92BF92CF92DF92EF92FF9217
S1130D100F931F93CF93DF9300D000D0CDB7DEB7EE
S1130D2081E08093F1048093F504E12CF12C612C93
S1130D30712C812C912CA12CB12CC12CD12C07EF1E
S1130D4012E00F2EFCEF2F2EF2E03F2EF02D14C1F7
S1130D508091F604882309F402C10E94E5009C8373
S1130D608B83E816F90609F451C0892B09F451C0A4
S1130D7061E070E08DE090E00E9440012C812F93AF
S1130D803B813F938EEE92E09F938F930F2EFEE96B
S1130D90EF2EF4E0FF2EF02DFF92EF920E94C2108E
S1130DA0C7010E948A012B813C81B90180E090E057
S1130DB00E94C00A2AE939E94CEC53E40E94580A1B
S1130DC0562E472E89839A83662E772E882E61E0CD
S1130DD070E083E090E00E9440019A809F92398104
S1130DE03F934F925F9282EF92E09F938F93FF9293
S1130DF0EF920E94C210C7010E948A010FB6F894B4
S1130E00DEBF0FBECDBFEB80FC8005C0E114F10452
S1130E1011F41092F504262D372D482D592D6A2DE5
S1130E207B2D8C2D9D2D0E94F009462E572E8A83F2
S1130E309983A62EB72EC82ED92E62E070E083E0E7
S1130E4090E00E94400120E03CE34CE156E4FA814A
S1130E50E981642D752D8F2F9E2F0E94540A8823BB
S1130E60A4F439813F938A818F935F924F921F93A9
S1130E700F938EE994E09F938F930E94C2100FB654
S1130E80F894DEBF0FBECDBF13C0F981FF932A8152
S1130E902F935F924F923F922F928EE994E09F930B
S1130EA08F930E94C2100FB6F894DEBF0FBECDBF61
S1130EB08EE994E00E948A0120E030E040E05FE3A4
S1130EC0FA81E981642D752D8F2F9E2F0E94720B5C
S1130ED069837A83582E492E62E070E08BE090E0BB
S1130EE00E94400120E030E046EC52E4B981AA813E
S1130EF06B2F7A2F852D942D0E94540A8823A4F4F5
S1130F004F925F929A819F93E981EF931F930F937E
S1130F108EE994E09F938F930E94C2100FB6F894C9
S1130F20DEBF0FBECDBF15C04F925F923A813F9393
S1130F3089818F93E1E0F3E0FF93EF938EE994E0EE
S1130F409F938F930E94C2100FB6F894DEBF0FBE1A
S1130F50CDBF8EE994E00E948A011092F60480913C
S1130F60F404882349F081E00E947B03833411F464
S1130F701092F5041092F4048091F5048111E8CEE6
S1130F801092F1040F900F900F900F90DF91CF917A
S1130F901F910F91FF90EF90DF90CF90BF90AF9093
S1130FA09F908F907F906F905F904F903F902F9085
S1130FB0089580E00895FFCF0E94C7030E94CB09E3
S1130FC00E94D2030E94B9040E9412010E94D4001C
S1130FD0789486E093E00E94E00923E630E0C8E0DC
S1130FE0D0E00F2EFEE0CF2ED12CF02D0F2EF5E009
S1130FF08F2E912CF02D0F2EF9E06F2E712CF02DE9
S11310000F2EFDE02F2E312CF02D0F2EF6E0EF2EBB
S1131010F12CF02D0F2EF7E04F2E512CF02D03E084
S113102010E00F2EFCE0AF2EB12CF02D01C09C017E
S11310308091F9049091FA048217930741F4209166
S1131040F3042223A1F3009791F19C01F1CF87309F
S1131050910509F449C194F48330910509F48BC0D6
S113106034F4009721F1029709F090C142C0853011
S1131070910509F404C10CF017C1CEC08A30910562
S113108009F4B7C044F48830910509F444C10997C0
S113109009F07CC160C18D30910509F4D0C08E3057
S11310A0910509F464C10C9709F070C151C082E143
S11310B093E00E94E0098091F9049091FA040E945F
S11310C09D018091F304882379F08EE193E00E94DE
S11310D0E0090E94C6042091F9043091FA04309288
S11310E0FA042092F904A4CF2091F9043091FA046F
S11310F09FCF8DE293E00E94E0098091F004882361
S1131100F1F08FE393E00E94E0090E94D205882366
S113111049F02091F9043091FA041093FA040093F1
S1131120F9040AC02091F9043091FA048AE090E0AD
S11311309093FA048093F9041092F00479CF2091EB
S1131140F9043091FA04B092FA04A092F90470CF31
S113115089E493E00E94E0098091F9049091FA04F3
S11311600E949D012091F9043091FA041092FA042E
S11311701092F9045DCF8BE593E00E94E009809121
S1131180F9049091FA040E949D010E9406068823A6
S1131190B1F00E94E5000A9748F42091F9043091D7
S11311A0FA043092FA042092F90442CF2091F9040F
S11311B03091FA049092FA048092F90439CF809124
S11311C0EA04882359F01092EA042091F90430913A
S11311D0FA041092FA041092F9042ACF2091F90427
S11311E03091FA0484E090E09093FA048093F90437
S11311F01FCF8FE693E00E94E0098091F90490915B
S1131200FA040E949D012091F9043091FA0410928D
S1131210FA041092F9040CCF82E893E00E94E009EA
S11312208091F9049091FA040E949D012091F9049F
S11312303091FA041093FA040093F904F9CE87E983
S113124093E00E94E0098091F9049091FA040E94CD
S11312509D010E945B06882349F02091F904309196
S1131260FA049092FA048092F904E2CE2091F904EF
S11312703091FA041092FA041092F904D9CE89EA52
S113128093E00E94E0098091F9049091FA040E948D
S11312909D010E947A062091F9043091FA04F0929B
S11312A0FA04E092F904C4CE89EB93E00E94E009C9
S11312B08091F9049091FA040E949D010E94E50036
S11312C00B9748F02091F9043091FA045092FA04F3
S11312D04092F904ADCE2091F9043091FA04D093F0
S11312E0FA04C093F904A4CE80ED93E00E94E009CF
S11312F08091F9049091FA040E949D010E94E500F6
S11313000B97E0F72091F9043091FA04D093FA0492
S1131310C093F9048DCE85EE93E00E94E00980919C
S1131320F9049091FA040E949D010E94D907882330
S113133049F02091F9043091FA041092FA041092C1
S1131340F90476CE2091F9043091FA047092FA04EB
S11313506092F9046DCE87EF93E00E94E0098091DA
S1131360F9049091FA040E949D010E94DB0788E031
S113137094E00E94E0098091F9049091FA040E949B
S11313809D012091F9043091FA0452CED092FA04CE
S1131390C092F9044DCE88E98093C10086E0809321
S11313A0C20082E08093C00087E68093C400089561
S11313B0E0ECF0E0908195FFFDCF8093C6000895A6
S11313C0CF93DF93EC018881882331F021960E942A
S11313D0D80989918111FBCFDF91CF91089550589D
S11313E0BB27AA270ED044C135D130F03AD120F022
S11313F031F49F3F11F41EF42AC10EF4E095E7FB8B
S113140020C1E92F46D180F3BA1762077307840716
S1131410950718F071F49EF55EC10EF4E0950B2E5D
S1131420BA2FA02D0B01B90190010C01CA01A00132
S11314301124FF27591B99F0593F50F4503E68F18D
S11314401A16F040A22F232F342F4427585FF3CFCE
S1131450469537952795A795F0405395C9F77EF49F
S11314601F16BA0B620B730B840BBAF09150A1F0E8
S1131470FF0FBB1F661F771F881FC2F70EC0BA0F6E
S1131480621F731F841F48F4879577956795B795F6
S1131490F7959E3F08F0B3CF9395880F08F09927EE
S11314A0EE0F979587950895A8D008F481E00895E4
S11314B00CD0DEC0D6D040F0CDD030F021F45F3F68
S11314C019F0BFC0511108C1C2C0E3D098F39923E9
S11314D0C9F35523B1F3951B550BBB27AA276217F4
S11314E07307840738F09F5F5F4F220F331F441F39
S11314F0AA1FA9F333D00E2E3AF0E0E830D0915071
S11315005040E695001CCAF729D0FE2F27D0660F5D
S1131510771F881FBB1F261737074807AB07B0E89C
S113152009F0BB0B802DBF01FF2793585F4F2AF0B2
S11315309E3F510568F085C0CFC05F3FECF3983EF5
S1131540DCF3869577956795B795F7959F5FC9F70F
S1131550880F911D9695879597F90895E1E0660F98
S1131560771F881FBB1F621773078407BA0720F011
S1131570621B730B840BBA0BEE1F88F7E09508957A
S1131580E89409C097FB3EF4909580957095619519
S11315907F4F8F4F9F4F9923A9F0F92F96E9BB27CF
S11315A09395F695879577956795B795F111F8CF4B
S11315B0FAF4BB0F11F460FF1BC06F5F7F4F8F4FB6
S11315C09F4F16C0882311F096E911C0772321F0AC
S11315D09EE8872F762F05C0662371F096E8862F44
S11315E070E060E02AF09A95660F771F881FDAF79B
S11315F0880F9695879597F90895990F0008550FC8
S1131600AA0BE0E8FEEF16161706E807F907C0F084
S113161012161306E407F50798F0621B730B840B8C
S1131620950B39F40A2661F0232B242B252B21F466
S113163008950A2609F4A140A6958FEF811D811D06
S1131640089597F99F6780E870E060E008959FEF40
S113165080EC089500240A94161617061806090645
S1131660089500240A941216130614060506089514
S1131670092E0394000C11F4882352F0BB0F40F49C
S1131680BF2B11F460FF04C06F5F7F4F8F4F9F4FDC
S1131690089557FD9058440F551F59F05F3F71F05E
S11316A04795880F97FB991F61F09F3F79F08795C5
S11316B00895121613061406551FF2CF4695F1DF4E
S11316C008C0161617061806991FF1CF86957105DE
S11316D0610508940895E894BB2766277727CB0112
S11316E097F908950BD0C4CFB5DF28F0BADF18F00E
S11316F0952309F0A6CFABCF1124EECFCADFA0F318
S1131700959FD1F3950F50E0551F629FF001729F92
S1131710BB27F00DB11D639FAA27F00DB11DAA1FB1
S1131720649F6627B00DA11D661F829F2227B00DFE
S1131730A11D621F739FB00DA11D621F839FA00D89
S1131740611D221F749F3327A00D611D231F849FD9
S1131750600D211D822F762F6A2F11249F57504030
S11317608AF0E1F088234AF0EE0FFF1FBB1F661FCB
S1131770771F881F91505040A9F79E3F510570F084
S113178060CFAACF5F3FECF3983EDCF38695779564
S11317906795B795F795E7959F5FC1F7FE2B880F7F
S11317A0911D9695879597F90895A2E1B0E0EBED28
S11317B0FBE00C94570F7C011B016A01FC011782AA
S11317C01682838181FD03C06BC3650105C0882433
S11317D08394912C8C0E9D1EF7019381F10193FD4E
S11317E0859193FF81911F01882309F455C38532A4
S11317F039F493FD859193FF81911F01853231F472
S1131800B70190E00E9496105601DFCF712C612C35
S113181020E02032A8F48B3261F028F4803251F0B9
S1131820833271F40BC08D3239F0803349F4216076
S113183028C02260246025C0286023C0206121C004
S113184027FD27C0382F30533A3078F426FF06C0DE
S1131850FAE07F9E300D1124732E13C04AE0649E7B
S1131860300D1124632E20620CC08E3221F426FD2B
S113187013C3206406C08C3611F4206802C0883675
S113188041F4F10193FD859193FF81911F01811131
S1131890C0CF982F9554933018F42061805E06C011
S11318A0982F9556933008F0A4C12F7E26FD02C0D0
S11318B016E0712EBFE35B2E5222853619F4F0E454
S11318C05F2A07C0863619F440E8542A02C0711012
S11318D07A9457FE07C05BE3571548F0472C4394AE
S11318E027E00DC087E0871530F0272D07C027E0DB
S11318F0ACE34A2E04C027E0F7E07F2E412C5601CA
S113190094E0A90EB11CF6016081718182819381FA
S1131910042DA4010E948E0F8C0149814C8740FF45
S113192002C043FF07C051FC08C052FE09C0E0E2F8
S1131930DE2E07C07DE2D72E04C06BE2D62E01C096
S1131940D12C8C858C70A1F1DD2011F084E001C0D4
S113195083E0861510F0612C0BC0681A53FC08C094
S1131960B70180E290E00E9496106A94C9F7F3CF21
S1131970DD2029F0B7018D2D90E00E9496105C8542
S113198053FD03C00CE610E00CC008E610E009C0EB
S113199051108052B70190E00E9496100F5F1F4FC4
S11319A002C080E15822F80184918111F1CF71C203
S11319B057FE0EC0400E4C8544FF04C08A8181331B
S11319C009F44A9414144CF558E0541548F12CC009
S11319D056FC2AC0872D90E08017910744F00C3FF5
S11319E08FEF180724F090E8592A01C07A947720E1
S11319F049F0E2E0F0E0EC0FFD1FE70DF11D8081FE
S1131A008033A1F357FE10C0472C4394872D90E0F8
S1131A100817190744F4701A07C04424439404C0F7
S1131A2058E0452E01C0712C57FE07C01016110650
S1131A303CF498012F5F3F4F05C025E030E002C021
S1131A4021E030E0DD2011F02F5F3F4F772031F0AF
S1131A50472D50E04F5F5F4F240F351F462D50E058
S1131A602417350714F4621A01C0612C852D89707E
S1131A7049F406C0B70180E290E00E9496106A948F
S1131A806110F8CFDD2029F0B7018D2D90E00E9480
S1131A90961053FC09C006C0B70180E390E00E9491
S1131AA096106A946110F8CF57FE56C0680117FF6C
S1131AB002C0C12CD12C20E030E0A8014419510906
S1131AC05E874D8728014C185D08480C591C872DEA
S1131AD090E044275527481B590B588B4F875FEFDD
S1131AE0C516D50649F4B7018EE290E02A8B398BEE
S1131AF00E94961039892A890C151D0554F04D85CC
S1131B005E854C155D052CF4F201E20FF31F818113
S1131B1001C080E351E0C51AD1082F5F3F4F4F85C4
S1131B205889C416D5064CF0B70190E02A8B398B3E
S1131B300E9496102A893989D2CFC016D10649F459
S1131B409A81963328F4953321F45C8554FD01C0C1
S1131B5081E3B70190E04AC08A81813319F04C8552
S1131B604F7E4C87B70190E00E949610711005C01B
S1131B7054FE16C085E490E015C0B7018EE290E0F3
S1131B800E94961042E0D42EF401ED0DF11DD39481
S1131B90B701808190E00E9496107A94A9F7E8CF6B
S1131BA085E690E0B7010E94961017FD06C0011566
S1131BB0110541F45C8554FF05C011950195110987
S1131BC08DE201C08BE2B70190E00E94961080E3A1
S1131BD003C08F5F0A5011090A301105D4F7B70109
S1131BE090E00E949610B701C801C0960E9496101A
S1131BF050C1833631F0833781F0833509F05EC0FC
S1131C0024C0560182E0A80EB11CF60180818983AC
S1131C10CC24C394D12C840114C05601F2E0AF0E3D
S1131C20B11CF6010081118126FF03C0672D70E00D
S1131C3002C06FEF7FEFC8012A8B0E948B106C01EA
S1131C402A899FE7592E522217C05601F2E0AF0E9F
S1131C50B11CF6010081118126FF03C0672D70E0DD
S1131C6002C06FEF7FEFC8012A8B0E9466106C01DF
S1131C702A8980E8582E522A53FC1CC006C0B7019A
S1131C8080E290E00E9496106A94862D90E0C81637
S1131C90D906A8F30FC0F80157FC859157FE81912E
S1131CA08F01B70190E00E94961061106A94F1E0F0
S1131CB0CF1AD108C114D10471F7EBC0843611F0E6
S1131CC0893651F5560127FF09C044E0A40EB11C22
S1131CD0F60160817181828193810AC0F2E0AF0EC6
S1131CE0B11CF60160817181882777FD8095982F5A
S1131CF0122F1F7697FF08C0909580957095619577
S1131D007F4F8F4F9F4F10682AE030E0A4010E945C
S1131D10E410D82ED81840C0122F853721F41F7E26
S1131D202AE030E01FC0197F8F36A1F020F48835F7
S1131D3009F0B2C00BC0803721F0883709F0ACC07D
S1131D4001C0106114FF09C0146007C024FF08C05B
S1131D50166006C028E030E005C020E130E002C093
S1131D6020E132E0560117FF09C0F4E0AF0EB11CC8
S1131D70F601608171818281938108C0F2E0AF0E27
S1131D80B11CF6016081718180E090E0A4010E94A1
S1131D90E410D82ED8181F7716FF0BC0212F2E7FE2
S1131DA0D71450F414FF0AC012FD08C0212F2E7E50
S1131DB005C00D2D212F03C00D2D01C0072D24FFBB
S1131DC00CC0FE01ED0DF11D8081803311F4297EDC
S1131DD008C022FF05C00E5F04C0822F867809F078
S1131DE00F5F23FD14C020FF0FC07D2C061560F487
S1131DF0760C701A062D08C0B70180E290E02A8B99
S1131E000E9496100F5F2A890615B0F304C00615C8
S1131E1010F4601A01C0612C24FF12C0B70180E3E2
S1131E2090E02A8B0E9496102A8922FF1EC021FF6F
S1131E3003C088E590E002C088E790E0B7010CC0D9
S1131E40822F867891F021FD02C080E201C08BE2EE
S1131E5027FD8DE2B70190E00E94961006C0B701FD
S1131E6080E390E00E9496107A94D714C0F3DA9439
S1131E70F401ED0DF11DB701808190E00E949610F0
S1131E80D110F5CF06C0B70180E290E00E94961011
S1131E906A946110F8CF99CCF7012681378102C08A
S1131EA02FEF3FEFC9016296E2E10C94730F2F927A
S1131EB03F924F925F926F927F928F929F92AF92D6
S1131EC0BF92CF92DF92EF92FF920F931F93CF9323
S1131ED0DF93CDB7DEB7CA1BDB0B0FB6F894DEBFBA
S1131EE00FBECDBF09942A88398848885F846E84E0
S1131EF07D848C849B84AA84B984C884DF80EE802A
S1131F00FD800C811B81AA81B981CE0FD11D0FB632
S1131F10F894DEBF0FBECDBFED010895283008F060
S1131F2027E03327DA01990F311D87FD9160009670
S1131F306105710539F432602E5F3D9330E32A95D3
S1131F40E1F708959F3F30F080387105610509F08D
S1131F503C5F3C5F3D93913008F08068911DDF93B6
S1131F60CF931F930F93FF92EF92192F987F96951B
S1131F70E92F96959695E90FFF27E653FF4F99278A
S1131F803327EE24FF24A701E70105900894079462
S1131F9028F4360FE71EF81E491F511D660F771FE0
S1131FA0881F991F0694A1F70590079428F4E70E5B
S1131FB0F81E491F561FC11D770F881F991F661FE2
S1131FC00694A1F70590079428F4F80E491F561FAC
S1131FD0C71FD11D880F991F661F771F0694A1F78D
S1131FE00590079420F4490F561FC71FD81F990F57
S1131FF0661F771F881F0694A9F7849110951770A0
S113200041F0D695C79557954795F794E7941A9557
S1132010C1F7E0E7F0E0689415901591359165916A
S1132020959105907FE27395E118F10A430B560BE5
S1132030C90BD009C0F7E10CF11E431F561FC91F7D
S1132040D01D7EF4703311F48A95E6CFE8940150E4
S113205030F0080F0AF40027021708F4202F239504
S1132060022F7A3328F079E37D932A95E9F710C09B
S11320707D932A9589F606949795679537951795D4
S11320801794E118F10A430B560BC90BD00998F0C9
S113209023957E9173957A3308F070E37C93201333
S11320A0B8F77E9170617D9330F0839571E37D93F1
S11320B070E32A95E1F71124EF90FF900F911F919F
S11320C0CF91DF91992787FD90950895FC010590A4
S11320D0615070400110D8F7809590958E0F9F1F26
S11320E00895FB01DC010D900020E9F711970190A0
S11320F00D920020E1F70895FB01DC0141505040AE
S113210048F001900D920020C9F701C01D92415082
S11321105040E0F70895FC016150704001900110B7
S1132120D8F7809590958E0F9F1F08950F931F9356
S1132130CF93DF938C01EB018B8181FD03C00FEF03
S11321401FEF1AC082FF0DC02E813F818C819D81BB
S11321502817390764F4E881F9810193F983E88346
S113216006C0E885F985802F0995892B41F78E8172
S11321709F8101969F838E83C801DF91CF911F9128
S11321800F910895AEE0B0E0E8ECF0E10C94650F37
S11321900D891E8986E08C831A8309838FEF9FE75C
S11321A09E838D83CE014996AC016F89788DCE01D3
S11321B001960E94D50BEF81F885E00FF11F108284
S11321C02E96E4E00C94810FFA01AA27283051F1ED
S11321D0203181F1E8946F936E7F6E5F7F4F8F4F54
S11321E09F4FAF4FB1E03ED0B4E03CD0670F781FB3
S11321F0891F9A1FA11D680F791F8A1F911DA11D98
S11322006A0F711D811D911DA11D20D009F46894D0
S11322103F912AE0269F11243019305D3193DEF678
S1132220CF010895462F4770405D4193B3E00FD02E
S1132230C9F7F6CF462F4F70405D4A3318F0495D19
S113224031FD4052419302D0A9F7EACFB4E0A695FC
S11322509795879577956795BA95C9F7009761051E
S1132260710508959B01AC010A2E06945795479574
S113227037952795BA95C9F7620F731F841F951F69
S10B2280A01D0895F894FFCF9E
S113228801102764000900E80357656C636F6D65E6
S113229800537769706520436172640054797065EE
S11322A82050617373776F72640043203D2063612B
S11322B86E63656C006361726420756E6B6E6F7714
S11322C86E0077726F6E672070617373776F7264D4
S11322D80074727920616761696E006361726420B9
S11322E8626C6F636B656400636F6E746163742002
S11322F873657276696365006361726420726561EF
S113230864206572726F7200737769706520616703
S113231861696E00503A20202020206D5720413AF0
S113232800453A20202020206D5753202020206B80
S113233872004368617267696E672073746F7070A6
S1132348656400436F6E6E65637420436172007444
S11323586F20636F6E74696E756500446973636F8B
S11323686E6E656374204361720055706C6F6164AE
S1132378696E67206461746100436861726765729D
S1132388204F66666C696E65004572726F722053E1
S113239874617465004461746120526561647920D4
S11323A80A00554944203D2000255800436F6D6DAF
S11323B8616E64206661696C6564200A005246494E
S11323C844207265616465722074696D656F757403
S11323D8200A002563002525005061636B6574207D
S11323E873656E640A00726563656976654275662D
S11323F866657220636F6E74656E740A0076616C2C
S113240869646174652063617264207061737352D6
S11324186573756C7420636F6E74656E740A00500E
S1132428617373776F72642074797065640A0070DD
S1132438617373776F7264526573756C7420636F1C
S11324486E74656E740A007761697420666F722011
S113245874696D656F75740A00636F6E6E65637475
S1132468206361722074696D656F75740A00253480
S11324787500252E326600252E31660025352E6618
S11324880025342E660043617264207465737420D9
S11324980A00737461746549646C65200A004361B9
S11324A872642050726573656E74200A00737461D7
S11324B8746543617264537769706564200A0067C0
S11324C86F7420554944200A00446964206E6F746F
S11324D82067657420554944200A00737461746543
S11324E85479706550617373776F7264200A00734E
S11324F874617465556E6B6E6F776E436172642098
S11325080A00737461746557726F6E6750617373F0
S1132518776F7264200A007374617465436F6E6E1A
S1132528656374436172200A007374617465436857
S1132538617267696E67200A007374617465436821
S1132548617267696E6753746F70706564200A00FE
S11325587374617465446973636F6E6E6563744301
S11325686172200A00737461746555706C6F6164DC
S1132578546F4442200A00737461746544426F6660
S1132588666C696E65200A007374617465457272BD
S10D25986F725374617465200A0029
S9030000FC
